{
  "contractName": "MotorRentalPlatform",
  "abi": [
    {
      "inputs": [],
      "stateMutability": "nonpayable",
      "type": "constructor"
    },
    {
      "anonymous": false,
      "inputs": [
        {
          "indexed": true,
          "internalType": "address",
          "name": "walletAddress",
          "type": "address"
        },
        {
          "indexed": false,
          "internalType": "uint256",
          "name": "amount",
          "type": "uint256"
        }
      ],
      "name": "BalanceWithdrawn",
      "type": "event"
    },
    {
      "anonymous": false,
      "inputs": [
        {
          "indexed": true,
          "internalType": "address",
          "name": "walletAddress",
          "type": "address"
        },
        {
          "indexed": true,
          "internalType": "uint256",
          "name": "motorId",
          "type": "uint256"
        }
      ],
      "name": "CheckIn",
      "type": "event"
    },
    {
      "anonymous": false,
      "inputs": [
        {
          "indexed": true,
          "internalType": "address",
          "name": "walletAddress",
          "type": "address"
        },
        {
          "indexed": true,
          "internalType": "uint256",
          "name": "motorId",
          "type": "uint256"
        }
      ],
      "name": "CheckOut",
      "type": "event"
    },
    {
      "anonymous": false,
      "inputs": [
        {
          "indexed": true,
          "internalType": "address",
          "name": "walletAddress",
          "type": "address"
        },
        {
          "indexed": false,
          "internalType": "uint256",
          "name": "amount",
          "type": "uint256"
        }
      ],
      "name": "Deposit",
      "type": "event"
    },
    {
      "anonymous": false,
      "inputs": [
        {
          "indexed": true,
          "internalType": "uint256",
          "name": "id",
          "type": "uint256"
        },
        {
          "indexed": false,
          "internalType": "string",
          "name": "name",
          "type": "string"
        },
        {
          "indexed": false,
          "internalType": "string",
          "name": "imgUrl",
          "type": "string"
        },
        {
          "indexed": false,
          "internalType": "uint256",
          "name": "rentFee",
          "type": "uint256"
        },
        {
          "indexed": false,
          "internalType": "uint256",
          "name": "saleFee",
          "type": "uint256"
        }
      ],
      "name": "MotorAdded",
      "type": "event"
    },
    {
      "anonymous": false,
      "inputs": [
        {
          "indexed": true,
          "internalType": "uint256",
          "name": "id",
          "type": "uint256"
        },
        {
          "indexed": false,
          "internalType": "string",
          "name": "name",
          "type": "string"
        },
        {
          "indexed": false,
          "internalType": "string",
          "name": "imgUrl",
          "type": "string"
        },
        {
          "indexed": false,
          "internalType": "uint256",
          "name": "rentFee",
          "type": "uint256"
        },
        {
          "indexed": false,
          "internalType": "uint256",
          "name": "saleFee",
          "type": "uint256"
        }
      ],
      "name": "MotorMetadataEdited",
      "type": "event"
    },
    {
      "anonymous": false,
      "inputs": [
        {
          "indexed": true,
          "internalType": "uint256",
          "name": "id",
          "type": "uint256"
        },
        {
          "indexed": false,
          "internalType": "enum MotorRentalPlatform.Status",
          "name": "status",
          "type": "uint8"
        }
      ],
      "name": "MotorStatusEdited",
      "type": "event"
    },
    {
      "anonymous": false,
      "inputs": [
        {
          "indexed": true,
          "internalType": "address",
          "name": "walletAddress",
          "type": "address"
        },
        {
          "indexed": false,
          "internalType": "uint256",
          "name": "amount",
          "type": "uint256"
        }
      ],
      "name": "PaymentMade",
      "type": "event"
    },
    {
      "anonymous": false,
      "inputs": [
        {
          "indexed": true,
          "internalType": "address",
          "name": "walletAddress",
          "type": "address"
        },
        {
          "indexed": false,
          "internalType": "string",
          "name": "name",
          "type": "string"
        },
        {
          "indexed": false,
          "internalType": "string",
          "name": "lastname",
          "type": "string"
        }
      ],
      "name": "UserAdded",
      "type": "event"
    },
    {
      "inputs": [
        {
          "internalType": "address",
          "name": "_newOwner",
          "type": "address"
        }
      ],
      "name": "setOwner",
      "outputs": [],
      "stateMutability": "nonpayable",
      "type": "function"
    },
    {
      "inputs": [
        {
          "internalType": "string",
          "name": "name",
          "type": "string"
        },
        {
          "internalType": "string",
          "name": "lastname",
          "type": "string"
        }
      ],
      "name": "addUser",
      "outputs": [],
      "stateMutability": "nonpayable",
      "type": "function"
    },
    {
      "inputs": [
        {
          "internalType": "string",
          "name": "name",
          "type": "string"
        },
        {
          "internalType": "string",
          "name": "url",
          "type": "string"
        },
        {
          "internalType": "uint256",
          "name": "rent",
          "type": "uint256"
        },
        {
          "internalType": "uint256",
          "name": "sale",
          "type": "uint256"
        }
      ],
      "name": "addMotor",
      "outputs": [],
      "stateMutability": "nonpayable",
      "type": "function"
    },
    {
      "inputs": [
        {
          "internalType": "uint256",
          "name": "id",
          "type": "uint256"
        },
        {
          "internalType": "string",
          "name": "name",
          "type": "string"
        },
        {
          "internalType": "string",
          "name": "imgUrl",
          "type": "string"
        },
        {
          "internalType": "uint256",
          "name": "rentFee",
          "type": "uint256"
        },
        {
          "internalType": "uint256",
          "name": "saleFee",
          "type": "uint256"
        }
      ],
      "name": "editMotorMetadata",
      "outputs": [],
      "stateMutability": "nonpayable",
      "type": "function"
    },
    {
      "inputs": [
        {
          "internalType": "uint256",
          "name": "id",
          "type": "uint256"
        },
        {
          "internalType": "enum MotorRentalPlatform.Status",
          "name": "status",
          "type": "uint8"
        }
      ],
      "name": "editMotorstatus",
      "outputs": [],
      "stateMutability": "nonpayable",
      "type": "function"
    },
    {
      "inputs": [
        {
          "internalType": "uint256",
          "name": "id",
          "type": "uint256"
        }
      ],
      "name": "checkOut",
      "outputs": [],
      "stateMutability": "nonpayable",
      "type": "function"
    },
    {
      "inputs": [],
      "name": "checkIn",
      "outputs": [],
      "stateMutability": "nonpayable",
      "type": "function"
    },
    {
      "inputs": [],
      "name": "deposit",
      "outputs": [],
      "stateMutability": "payable",
      "type": "function",
      "payable": true
    },
    {
      "inputs": [],
      "name": "makePayment",
      "outputs": [],
      "stateMutability": "nonpayable",
      "type": "function"
    },
    {
      "inputs": [
        {
          "internalType": "uint256",
          "name": "amount",
          "type": "uint256"
        }
      ],
      "name": "withdrawBalance",
      "outputs": [],
      "stateMutability": "nonpayable",
      "type": "function"
    },
    {
      "inputs": [
        {
          "internalType": "uint256",
          "name": "amount",
          "type": "uint256"
        }
      ],
      "name": "withdrawOwnerBalance",
      "outputs": [],
      "stateMutability": "nonpayable",
      "type": "function"
    },
    {
      "inputs": [],
      "name": "getOwner",
      "outputs": [
        {
          "internalType": "address",
          "name": "",
          "type": "address"
        }
      ],
      "stateMutability": "view",
      "type": "function",
      "constant": true
    },
    {
      "inputs": [
        {
          "internalType": "address",
          "name": "walletAddress",
          "type": "address"
        }
      ],
      "name": "getUser",
      "outputs": [
        {
          "components": [
            {
              "internalType": "address",
              "name": "walletAddress",
              "type": "address"
            },
            {
              "internalType": "string",
              "name": "name",
              "type": "string"
            },
            {
              "internalType": "string",
              "name": "lastname",
              "type": "string"
            },
            {
              "internalType": "uint256",
              "name": "balance",
              "type": "uint256"
            },
            {
              "internalType": "uint256",
              "name": "rentedMotorId",
              "type": "uint256"
            },
            {
              "internalType": "uint256",
              "name": "debt",
              "type": "uint256"
            },
            {
              "internalType": "uint256",
              "name": "start",
              "type": "uint256"
            }
          ],
          "internalType": "struct MotorRentalPlatform.User",
          "name": "",
          "type": "tuple"
        }
      ],
      "stateMutability": "view",
      "type": "function",
      "constant": true
    },
    {
      "inputs": [
        {
          "internalType": "uint256",
          "name": "id",
          "type": "uint256"
        }
      ],
      "name": "getMotor",
      "outputs": [
        {
          "components": [
            {
              "internalType": "uint256",
              "name": "id",
              "type": "uint256"
            },
            {
              "internalType": "string",
              "name": "name",
              "type": "string"
            },
            {
              "internalType": "string",
              "name": "imgUrl",
              "type": "string"
            },
            {
              "internalType": "enum MotorRentalPlatform.Status",
              "name": "status",
              "type": "uint8"
            },
            {
              "internalType": "uint256",
              "name": "rentFee",
              "type": "uint256"
            },
            {
              "internalType": "uint256",
              "name": "saleFee",
              "type": "uint256"
            }
          ],
          "internalType": "struct MotorRentalPlatform.Motor",
          "name": "",
          "type": "tuple"
        }
      ],
      "stateMutability": "view",
      "type": "function",
      "constant": true
    },
    {
      "inputs": [
        {
          "internalType": "enum MotorRentalPlatform.Status",
          "name": "_status",
          "type": "uint8"
        }
      ],
      "name": "getMotorByStatus",
      "outputs": [
        {
          "components": [
            {
              "internalType": "uint256",
              "name": "id",
              "type": "uint256"
            },
            {
              "internalType": "string",
              "name": "name",
              "type": "string"
            },
            {
              "internalType": "string",
              "name": "imgUrl",
              "type": "string"
            },
            {
              "internalType": "enum MotorRentalPlatform.Status",
              "name": "status",
              "type": "uint8"
            },
            {
              "internalType": "uint256",
              "name": "rentFee",
              "type": "uint256"
            },
            {
              "internalType": "uint256",
              "name": "saleFee",
              "type": "uint256"
            }
          ],
          "internalType": "struct MotorRentalPlatform.Motor[]",
          "name": "",
          "type": "tuple[]"
        }
      ],
      "stateMutability": "view",
      "type": "function",
      "constant": true
    },
    {
      "inputs": [],
      "name": "getCurrentCount",
      "outputs": [
        {
          "internalType": "uint256",
          "name": "",
          "type": "uint256"
        }
      ],
      "stateMutability": "view",
      "type": "function",
      "constant": true
    },
    {
      "inputs": [],
      "name": "getContractBalance",
      "outputs": [
        {
          "internalType": "uint256",
          "name": "",
          "type": "uint256"
        }
      ],
      "stateMutability": "view",
      "type": "function",
      "constant": true
    },
    {
      "inputs": [],
      "name": "getTotalPayments",
      "outputs": [
        {
          "internalType": "uint256",
          "name": "",
          "type": "uint256"
        }
      ],
      "stateMutability": "view",
      "type": "function",
      "constant": true
    }
  ],
  "bytecode": "0x608060405234801561000f575f80fd5b5060015f819055503360025f6101000a81548173ffffffffffffffffffffffffffffffffffffffff021916908373ffffffffffffffffffffffffffffffffffffffff1602179055505f6003819055506139368061006b5f395ff3fe608060405260043610610108575f3560e01c80638510f35b11610094578063d0e30db011610063578063d0e30db014610344578063d8d797001461034e578063da76d5cd14610364578063dd51babf1461038c578063fe8629c1146103b657610108565b80638510f35b1461028e578063893d20e8146102b6578063a4b43988146102e0578063c3d2bd7b1461031c57610108565b80633c69c657116100db5780633c69c6571461019a578063637d60a4146101c25780636f77926b146101fe5780636f9fb98a1461023a578063708f29a61461026457610108565b8063079eaf341461010c57806313af403514610134578063183ff0851461015c5780631bd2eeee14610172575b5f80fd5b348015610117575f80fd5b50610132600480360381019061012d91906124cd565b6103de565b005b34801561013f575f80fd5b5061015a600480360381019061015591906125a5565b6106a2565b005b348015610167575f80fd5b50610170610774565b005b34801561017d575f80fd5b5061019860048036038101906101939190612603565b610a17565b005b3480156101a5575f80fd5b506101c060048036038101906101bb9190612603565b610cf7565b005b3480156101cd575f80fd5b506101e860048036038101906101e39190612651565b610ef5565b6040516101f591906128d0565b60405180910390f35b348015610209575f80fd5b50610224600480360381019061021f91906125a5565b611210565b604051610231919061299f565b60405180910390f35b348015610245575f80fd5b5061024e61144b565b60405161025b91906129ce565b60405180910390f35b34801561026f575f80fd5b506102786114e1565b60405161028591906129ce565b60405180910390f35b348015610299575f80fd5b506102b460048036038101906102af91906129e7565b611579565b005b3480156102c1575f80fd5b506102ca611805565b6040516102d79190612a99565b60405180910390f35b3480156102eb575f80fd5b5061030660048036038101906103019190612603565b61182d565b6040516103139190612b3f565b60405180910390f35b348015610327575f80fd5b50610342600480360381019061033d9190612b5f565b611a24565b005b61034c611bd4565b005b348015610359575f80fd5b50610362611cc2565b005b34801561036f575f80fd5b5061038a60048036038101906103859190612603565b611f13565b005b348015610397575f80fd5b506103a061213a565b6040516103ad91906129ce565b60405180910390f35b3480156103c1575f80fd5b506103dc60048036038101906103d79190612c16565b61214a565b005b6103e7336122a5565b15610427576040517f08c379a000000000000000000000000000000000000000000000000000000000815260040161041e90612cae565b60405180910390fd5b6040518060e001604052803373ffffffffffffffffffffffffffffffffffffffff16815260200185858080601f0160208091040260200160405190810160405280939291908181526020018383808284375f81840152601f19601f82011690508083019250505050505050815260200183838080601f0160208091040260200160405190810160405280939291908181526020018383808284375f81840152601f19601f8201169050808301925050505050505081526020015f81526020015f81526020015f81526020015f81525060045f3373ffffffffffffffffffffffffffffffffffffffff1673ffffffffffffffffffffffffffffffffffffffff1681526020019081526020015f205f820151815f015f6101000a81548173ffffffffffffffffffffffffffffffffffffffff021916908373ffffffffffffffffffffffffffffffffffffffff160217905550602082015181600101908161058c9190612ef3565b5060408201518160020190816105a29190612ef3565b50606082015181600301556080820151816004015560a0820151816005015560c082015181600601559050503373ffffffffffffffffffffffffffffffffffffffff167f8eab1db142a914aff8b515eedb9177bd7effaef6d714c41e30bdf1520677860760045f3373ffffffffffffffffffffffffffffffffffffffff1673ffffffffffffffffffffffffffffffffffffffff1681526020019081526020015f2060010160045f3373ffffffffffffffffffffffffffffffffffffffff1673ffffffffffffffffffffffffffffffffffffffff1681526020019081526020015f20600201604051610694929190613043565b60405180910390a250505050565b60025f9054906101000a900473ffffffffffffffffffffffffffffffffffffffff1673ffffffffffffffffffffffffffffffffffffffff163373ffffffffffffffffffffffffffffffffffffffff1614610731576040517f08c379a0000000000000000000000000000000000000000000000000000000008152600401610728906130e8565b60405180910390fd5b8060025f6101000a81548173ffffffffffffffffffffffffffffffffffffffff021916908373ffffffffffffffffffffffffffffffffffffffff16021790555050565b61077d336122a5565b6107bc576040517f08c379a00000000000000000000000000000000000000000000000000000000081526004016107b390613150565b60405180910390fd5b5f60045f3373ffffffffffffffffffffffffffffffffffffffff1673ffffffffffffffffffffffffffffffffffffffff1681526020019081526020015f206004015490505f8103610842576040517f08c379a0000000000000000000000000000000000000000000000000000000008152600401610839906131b8565b60405180910390fd5b5f60045f3373ffffffffffffffffffffffffffffffffffffffff1673ffffffffffffffffffffffffffffffffffffffff1681526020019081526020015f20600601544261088f9190613203565b90505f60055f8481526020019081526020015f206004015490506108b3828261233b565b60045f3373ffffffffffffffffffffffffffffffffffffffff1673ffffffffffffffffffffffffffffffffffffffff1681526020019081526020015f206005015f8282546109019190613236565b925050819055505f60045f3373ffffffffffffffffffffffffffffffffffffffff1673ffffffffffffffffffffffffffffffffffffffff1681526020019081526020015f20600401819055505f60045f3373ffffffffffffffffffffffffffffffffffffffff1673ffffffffffffffffffffffffffffffffffffffff1681526020019081526020015f2060060181905550600160055f8581526020019081526020015f206003015f6101000a81548160ff021916908360028111156109c9576109c861273e565b5b0217905550823373ffffffffffffffffffffffffffffffffffffffff167fa864a8b988e604bb05d6ce75d53efabb5620c45b15380b7bd0c51dcfa71dda0360405160405180910390a3505050565b610a20336122a5565b610a5f576040517f08c379a0000000000000000000000000000000000000000000000000000000008152600401610a5690613150565b60405180910390fd5b60016002811115610a7357610a7261273e565b5b60055f8381526020019081526020015f206003015f9054906101000a900460ff166002811115610aa657610aa561273e565b5b14610ae6576040517f08c379a0000000000000000000000000000000000000000000000000000000008152600401610add906132b3565b60405180910390fd5b5f60045f3373ffffffffffffffffffffffffffffffffffffffff1673ffffffffffffffffffffffffffffffffffffffff1681526020019081526020015f206004015414610b68576040517f08c379a0000000000000000000000000000000000000000000000000000000008152600401610b5f9061331b565b60405180910390fd5b5f60045f3373ffffffffffffffffffffffffffffffffffffffff1673ffffffffffffffffffffffffffffffffffffffff1681526020019081526020015f206005015414610bea576040517f08c379a0000000000000000000000000000000000000000000000000000000008152600401610be190613383565b60405180910390fd5b4260045f3373ffffffffffffffffffffffffffffffffffffffff1673ffffffffffffffffffffffffffffffffffffffff1681526020019081526020015f20600601819055508060045f3373ffffffffffffffffffffffffffffffffffffffff1673ffffffffffffffffffffffffffffffffffffffff1681526020019081526020015f2060040181905550600260055f8381526020019081526020015f206003015f6101000a81548160ff02191690836002811115610cab57610caa61273e565b5b0217905550803373ffffffffffffffffffffffffffffffffffffffff167ff65ce03794824579bcd95d8c6743ffc10c4a5e7405fb3876c1abf81453105c4260405160405180910390a350565b60025f9054906101000a900473ffffffffffffffffffffffffffffffffffffffff1673ffffffffffffffffffffffffffffffffffffffff163373ffffffffffffffffffffffffffffffffffffffff1614610d86576040517f08c379a0000000000000000000000000000000000000000000000000000000008152600401610d7d906130e8565b60405180910390fd5b806003541015610dcb576040517f08c379a0000000000000000000000000000000000000000000000000000000008152600401610dc290613411565b60405180910390fd5b5f60025f9054906101000a900473ffffffffffffffffffffffffffffffffffffffff1673ffffffffffffffffffffffffffffffffffffffff1682604051610e119061345c565b5f6040518083038185875af1925050503d805f8114610e4b576040519150601f19603f3d011682016040523d82523d5f602084013e610e50565b606091505b5050905080610e94576040517f08c379a0000000000000000000000000000000000000000000000000000000008152600401610e8b906134ba565b60405180910390fd5b8160035f82825403925050819055503373ffffffffffffffffffffffffffffffffffffffff167fddc398b321237a8d40ac914388309c2f52a08c134e4dc4ce61e32f57cb7d80f183604051610ee991906129ce565b60405180910390a25050565b60605f80610f03600161235c565b90505f600190505b818111610f7f57846002811115610f2557610f2461273e565b5b60055f8381526020019081526020015f206003015f9054906101000a900460ff166002811115610f5857610f5761273e565b5b03610f6c578280610f68906134d8565b9350505b8080610f77906134d8565b915050610f0b565b505f8267ffffffffffffffff811115610f9b57610f9a612ccc565b5b604051908082528060200260200182016040528015610fd457816020015b610fc16123d2565b815260200190600190039081610fb95790505b5090505f80600190505b83811161120357866002811115610ff857610ff761273e565b5b60055f8381526020019081526020015f206003015f9054906101000a900460ff16600281111561102b5761102a61273e565b5b036111f05760055f8281526020019081526020015f206040518060c00160405290815f820154815260200160018201805461106590612d26565b80601f016020809104026020016040519081016040528092919081815260200182805461109190612d26565b80156110dc5780601f106110b3576101008083540402835291602001916110dc565b820191905f5260205f20905b8154815290600101906020018083116110bf57829003601f168201915b505050505081526020016002820180546110f590612d26565b80601f016020809104026020016040519081016040528092919081815260200182805461112190612d26565b801561116c5780601f106111435761010080835404028352916020019161116c565b820191905f5260205f20905b81548152906001019060200180831161114f57829003601f168201915b50505050508152602001600382015f9054906101000a900460ff1660028111156111995761119861273e565b5b60028111156111ab576111aa61273e565b5b8152602001600482015481526020016005820154815250508383815181106111d6576111d561351f565b5b602002602001018190525081806111ec906134d8565b9250505b80806111fb906134d8565b915050610fde565b5081945050505050919050565b611218612416565b611221826122a5565b611260576040517f08c379a000000000000000000000000000000000000000000000000000000000815260040161125790613150565b60405180910390fd5b60045f8373ffffffffffffffffffffffffffffffffffffffff1673ffffffffffffffffffffffffffffffffffffffff1681526020019081526020015f206040518060e00160405290815f82015f9054906101000a900473ffffffffffffffffffffffffffffffffffffffff1673ffffffffffffffffffffffffffffffffffffffff1673ffffffffffffffffffffffffffffffffffffffff16815260200160018201805461130c90612d26565b80601f016020809104026020016040519081016040528092919081815260200182805461133890612d26565b80156113835780601f1061135a57610100808354040283529160200191611383565b820191905f5260205f20905b81548152906001019060200180831161136657829003601f168201915b5050505050815260200160028201805461139c90612d26565b80601f01602080910402602001604051908101604052809291908181526020018280546113c890612d26565b80156114135780601f106113ea57610100808354040283529160200191611413565b820191905f5260205f20905b8154815290600101906020018083116113f657829003601f168201915b505050505081526020016003820154815260200160048201548152602001600582015481526020016006820154815250509050919050565b5f60025f9054906101000a900473ffffffffffffffffffffffffffffffffffffffff1673ffffffffffffffffffffffffffffffffffffffff163373ffffffffffffffffffffffffffffffffffffffff16146114db576040517f08c379a00000000000000000000000000000000000000000000000000000000081526004016114d2906130e8565b60405180910390fd5b47905090565b5f60025f9054906101000a900473ffffffffffffffffffffffffffffffffffffffff1673ffffffffffffffffffffffffffffffffffffffff163373ffffffffffffffffffffffffffffffffffffffff1614611571576040517f08c379a0000000000000000000000000000000000000000000000000000000008152600401611568906130e8565b60405180910390fd5b600354905090565b60025f9054906101000a900473ffffffffffffffffffffffffffffffffffffffff1673ffffffffffffffffffffffffffffffffffffffff163373ffffffffffffffffffffffffffffffffffffffff1614611608576040517f08c379a00000000000000000000000000000000000000000000000000000000081526004016115ff906130e8565b60405180910390fd5b6116126001612368565b5f61161d600161235c565b90506040518060c0016040528082815260200188888080601f0160208091040260200160405190810160405280939291908181526020018383808284375f81840152601f19601f82011690508083019250505050505050815260200186868080601f0160208091040260200160405190810160405280939291908181526020018383808284375f81840152601f19601f820116905080830192505050505050508152602001600160028111156116d6576116d561273e565b5b81526020018481526020018381525060055f8381526020019081526020015f205f820151815f015560208201518160010190816117139190612ef3565b5060408201518160020190816117299190612ef3565b506060820151816003015f6101000a81548160ff021916908360028111156117545761175361273e565b5b02179055506080820151816004015560a08201518160050155905050807f423ea99c3f49846903d18dcc9d60f2a2c8be384d33a1968a6c643f4c9f392ba960055f8481526020019081526020015f2060010160055f8581526020019081526020015f2060020160055f8681526020019081526020015f206004015460055f8781526020019081526020015f20600501546040516117f4949392919061354c565b60405180910390a250505050505050565b5f60025f9054906101000a900473ffffffffffffffffffffffffffffffffffffffff16905090565b6118356123d2565b5f60055f8481526020019081526020015f205f01540361188a576040517f08c379a00000000000000000000000000000000000000000000000000000000081526004016118819061360d565b60405180910390fd5b60055f8381526020019081526020015f206040518060c00160405290815f82015481526020016001820180546118bf90612d26565b80601f01602080910402602001604051908101604052809291908181526020018280546118eb90612d26565b80156119365780601f1061190d57610100808354040283529160200191611936565b820191905f5260205f20905b81548152906001019060200180831161191957829003601f168201915b5050505050815260200160028201805461194f90612d26565b80601f016020809104026020016040519081016040528092919081815260200182805461197b90612d26565b80156119c65780601f1061199d576101008083540402835291602001916119c6565b820191905f5260205f20905b8154815290600101906020018083116119a957829003601f168201915b50505050508152602001600382015f9054906101000a900460ff1660028111156119f3576119f261273e565b5b6002811115611a0557611a0461273e565b5b8152602001600482015481526020016005820154815250509050919050565b60025f9054906101000a900473ffffffffffffffffffffffffffffffffffffffff1673ffffffffffffffffffffffffffffffffffffffff163373ffffffffffffffffffffffffffffffffffffffff1614611ab3576040517f08c379a0000000000000000000000000000000000000000000000000000000008152600401611aaa906130e8565b60405180910390fd5b5f60055f8981526020019081526020015f205f015403611b08576040517f08c379a0000000000000000000000000000000000000000000000000000000008152600401611aff9061360d565b60405180910390fd5b5f60055f8981526020019081526020015f2090505f8787905014611b3b578686826001019182611b39929190613635565b505b5f8585905014611b5a578484826002019182611b58929190613635565b505b5f831115611b6c578281600401819055505b5f821115611b7e578181600501819055505b877f98c542047f0d3b2a3a2af00e6c12fc4cb4382634539781344efca047bed77ebe826001018360020184600401548560050154604051611bc2949392919061354c565b60405180910390a25050505050505050565b611bdd336122a5565b611c1c576040517f08c379a0000000000000000000000000000000000000000000000000000000008152600401611c1390613150565b60405180910390fd5b3460045f3373ffffffffffffffffffffffffffffffffffffffff1673ffffffffffffffffffffffffffffffffffffffff1681526020019081526020015f206003015f828254611c6b9190613236565b925050819055503373ffffffffffffffffffffffffffffffffffffffff167fe1fffcc4923d04b559f4d29a8bfc6cda04eb5b0d3c460751c2402c5c5cc9109c34604051611cb891906129ce565b60405180910390a2565b611ccb336122a5565b611d0a576040517f08c379a0000000000000000000000000000000000000000000000000000000008152600401611d0190613150565b60405180910390fd5b5f60045f3373ffffffffffffffffffffffffffffffffffffffff1673ffffffffffffffffffffffffffffffffffffffff1681526020019081526020015f206005015490505f60045f3373ffffffffffffffffffffffffffffffffffffffff1673ffffffffffffffffffffffffffffffffffffffff1681526020019081526020015f206003015490505f8211611dd4576040517f08c379a0000000000000000000000000000000000000000000000000000000008152600401611dcb9061374c565b60405180910390fd5b81811015611e17576040517f08c379a0000000000000000000000000000000000000000000000000000000008152600401611e0e906137b4565b60405180910390fd5b8160045f3373ffffffffffffffffffffffffffffffffffffffff1673ffffffffffffffffffffffffffffffffffffffff1681526020019081526020015f206003015f82825403925050819055508160035f828254611e759190613236565b925050819055505f60045f3373ffffffffffffffffffffffffffffffffffffffff1673ffffffffffffffffffffffffffffffffffffffff1681526020019081526020015f20600501819055503373ffffffffffffffffffffffffffffffffffffffff167f3a2d0e41c506b136330c6e5e0295ccbf0966daece99bfe7c89020cc01dbfb8d683604051611f0791906129ce565b60405180910390a25050565b611f1b61237c565b611f24336122a5565b611f63576040517f08c379a0000000000000000000000000000000000000000000000000000000008152600401611f5a90613150565b60405180910390fd5b5f60045f3373ffffffffffffffffffffffffffffffffffffffff1673ffffffffffffffffffffffffffffffffffffffff1681526020019081526020015f2060030154905081811015611fea576040517f08c379a0000000000000000000000000000000000000000000000000000000008152600401611fe1906137b4565b60405180910390fd5b8160045f3373ffffffffffffffffffffffffffffffffffffffff1673ffffffffffffffffffffffffffffffffffffffff1681526020019081526020015f206003015f82825403925050819055505f3373ffffffffffffffffffffffffffffffffffffffff168360405161205c9061345c565b5f6040518083038185875af1925050503d805f8114612096576040519150601f19603f3d011682016040523d82523d5f602084013e61209b565b606091505b50509050806120df576040517f08c379a00000000000000000000000000000000000000000000000000000000081526004016120d6906134ba565b60405180910390fd5b3373ffffffffffffffffffffffffffffffffffffffff167fddc398b321237a8d40ac914388309c2f52a08c134e4dc4ce61e32f57cb7d80f18460405161212591906129ce565b60405180910390a250506121376123c9565b50565b5f612145600161235c565b905090565b60025f9054906101000a900473ffffffffffffffffffffffffffffffffffffffff1673ffffffffffffffffffffffffffffffffffffffff163373ffffffffffffffffffffffffffffffffffffffff16146121d9576040517f08c379a00000000000000000000000000000000000000000000000000000000081526004016121d0906130e8565b60405180910390fd5b5f60055f8481526020019081526020015f205f01540361222e576040517f08c379a00000000000000000000000000000000000000000000000000000000081526004016122259061360d565b60405180910390fd5b8060055f8481526020019081526020015f206003015f6101000a81548160ff021916908360028111156122645761226361273e565b5b0217905550817fe4360f28c4610e8626116886223ae52de85e94a0522a6e8288a45f6c1cb88a3c8260405161229991906137e1565b60405180910390a25050565b5f8073ffffffffffffffffffffffffffffffffffffffff1660045f8473ffffffffffffffffffffffffffffffffffffffff1673ffffffffffffffffffffffffffffffffffffffff1681526020019081526020015f205f015f9054906101000a900473ffffffffffffffffffffffffffffffffffffffff1673ffffffffffffffffffffffffffffffffffffffff1614159050919050565b5f81603c8461234a9190613827565b6123549190613857565b905092915050565b5f815f01549050919050565b6001815f015f828254019250508190555050565b60025f54036123c0576040517f08c379a00000000000000000000000000000000000000000000000000000000081526004016123b7906138e2565b60405180910390fd5b60025f81905550565b60015f81905550565b6040518060c001604052805f815260200160608152602001606081526020015f60028111156124045761240361273e565b5b81526020015f81526020015f81525090565b6040518060e001604052805f73ffffffffffffffffffffffffffffffffffffffff16815260200160608152602001606081526020015f81526020015f81526020015f81526020015f81525090565b5f80fd5b5f80fd5b5f80fd5b5f80fd5b5f80fd5b5f8083601f84011261248d5761248c61246c565b5b8235905067ffffffffffffffff8111156124aa576124a9612470565b5b6020830191508360018202830111156124c6576124c5612474565b5b9250929050565b5f805f80604085870312156124e5576124e4612464565b5b5f85013567ffffffffffffffff81111561250257612501612468565b5b61250e87828801612478565b9450945050602085013567ffffffffffffffff81111561253157612530612468565b5b61253d87828801612478565b925092505092959194509250565b5f73ffffffffffffffffffffffffffffffffffffffff82169050919050565b5f6125748261254b565b9050919050565b6125848161256a565b811461258e575f80fd5b50565b5f8135905061259f8161257b565b92915050565b5f602082840312156125ba576125b9612464565b5b5f6125c784828501612591565b91505092915050565b5f819050919050565b6125e2816125d0565b81146125ec575f80fd5b50565b5f813590506125fd816125d9565b92915050565b5f6020828403121561261857612617612464565b5b5f612625848285016125ef565b91505092915050565b6003811061263a575f80fd5b50565b5f8135905061264b8161262e565b92915050565b5f6020828403121561266657612665612464565b5b5f6126738482850161263d565b91505092915050565b5f81519050919050565b5f82825260208201905092915050565b5f819050602082019050919050565b6126ae816125d0565b82525050565b5f81519050919050565b5f82825260208201905092915050565b5f5b838110156126eb5780820151818401526020810190506126d0565b5f8484015250505050565b5f601f19601f8301169050919050565b5f612710826126b4565b61271a81856126be565b935061272a8185602086016126ce565b612733816126f6565b840191505092915050565b7f4e487b71000000000000000000000000000000000000000000000000000000005f52602160045260245ffd5b6003811061277c5761277b61273e565b5b50565b5f81905061278c8261276b565b919050565b5f61279b8261277f565b9050919050565b6127ab81612791565b82525050565b5f60c083015f8301516127c65f8601826126a5565b50602083015184820360208601526127de8282612706565b915050604083015184820360408601526127f88282612706565b915050606083015161280d60608601826127a2565b50608083015161282060808601826126a5565b5060a083015161283360a08601826126a5565b508091505092915050565b5f61284983836127b1565b905092915050565b5f602082019050919050565b5f6128678261267c565b6128718185612686565b93508360208202850161288385612696565b805f5b858110156128be578484038952815161289f858261283e565b94506128aa83612851565b925060208a01995050600181019050612886565b50829750879550505050505092915050565b5f6020820190508181035f8301526128e8818461285d565b905092915050565b6128f98161256a565b82525050565b5f60e083015f8301516129145f8601826128f0565b506020830151848203602086015261292c8282612706565b915050604083015184820360408601526129468282612706565b915050606083015161295b60608601826126a5565b50608083015161296e60808601826126a5565b5060a083015161298160a08601826126a5565b5060c083015161299460c08601826126a5565b508091505092915050565b5f6020820190508181035f8301526129b781846128ff565b905092915050565b6129c8816125d0565b82525050565b5f6020820190506129e15f8301846129bf565b92915050565b5f805f805f8060808789031215612a0157612a00612464565b5b5f87013567ffffffffffffffff811115612a1e57612a1d612468565b5b612a2a89828a01612478565b9650965050602087013567ffffffffffffffff811115612a4d57612a4c612468565b5b612a5989828a01612478565b94509450506040612a6c89828a016125ef565b9250506060612a7d89828a016125ef565b9150509295509295509295565b612a938161256a565b82525050565b5f602082019050612aac5f830184612a8a565b92915050565b5f60c083015f830151612ac75f8601826126a5565b5060208301518482036020860152612adf8282612706565b91505060408301518482036040860152612af98282612706565b9150506060830151612b0e60608601826127a2565b506080830151612b2160808601826126a5565b5060a0830151612b3460a08601826126a5565b508091505092915050565b5f6020820190508181035f830152612b578184612ab2565b905092915050565b5f805f805f805f60a0888a031215612b7a57612b79612464565b5b5f612b878a828b016125ef565b975050602088013567ffffffffffffffff811115612ba857612ba7612468565b5b612bb48a828b01612478565b9650965050604088013567ffffffffffffffff811115612bd757612bd6612468565b5b612be38a828b01612478565b94509450506060612bf68a828b016125ef565b9250506080612c078a828b016125ef565b91505092959891949750929550565b5f8060408385031215612c2c57612c2b612464565b5b5f612c39858286016125ef565b9250506020612c4a8582860161263d565b9150509250929050565b5f82825260208201905092915050565b7f5573657220616c726561647920657869737473000000000000000000000000005f82015250565b5f612c98601383612c54565b9150612ca382612c64565b602082019050919050565b5f6020820190508181035f830152612cc581612c8c565b9050919050565b7f4e487b71000000000000000000000000000000000000000000000000000000005f52604160045260245ffd5b7f4e487b71000000000000000000000000000000000000000000000000000000005f52602260045260245ffd5b5f6002820490506001821680612d3d57607f821691505b602082108103612d5057612d4f612cf9565b5b50919050565b5f819050815f5260205f209050919050565b5f6020601f8301049050919050565b5f82821b905092915050565b5f60088302612db27fffffffffffffffffffffffffffffffffffffffffffffffffffffffffffffffff82612d77565b612dbc8683612d77565b95508019841693508086168417925050509392505050565b5f819050919050565b5f612df7612df2612ded846125d0565b612dd4565b6125d0565b9050919050565b5f819050919050565b612e1083612ddd565b612e24612e1c82612dfe565b848454612d83565b825550505050565b5f90565b612e38612e2c565b612e43818484612e07565b505050565b5b81811015612e6657612e5b5f82612e30565b600181019050612e49565b5050565b601f821115612eab57612e7c81612d56565b612e8584612d68565b81016020851015612e94578190505b612ea8612ea085612d68565b830182612e48565b50505b505050565b5f82821c905092915050565b5f612ecb5f1984600802612eb0565b1980831691505092915050565b5f612ee38383612ebc565b9150826002028217905092915050565b612efc826126b4565b67ffffffffffffffff811115612f1557612f14612ccc565b5b612f1f8254612d26565b612f2a828285612e6a565b5f60209050601f831160018114612f5b575f8415612f49578287015190505b612f538582612ed8565b865550612fba565b601f198416612f6986612d56565b5f5b82811015612f9057848901518255600182019150602085019450602081019050612f6b565b86831015612fad5784890151612fa9601f891682612ebc565b8355505b6001600288020188555050505b505050505050565b5f8154612fce81612d26565b612fd88186612c54565b9450600182165f8114612ff257600181146130085761303a565b60ff19831686528115156020028601935061303a565b61301185612d56565b5f5b8381101561303257815481890152600182019150602081019050613013565b808801955050505b50505092915050565b5f6040820190508181035f83015261305b8185612fc2565b9050818103602083015261306f8184612fc2565b90509392505050565b7f4f6e6c79206f776e65722063616e2063616c6c20746869732066756e6374696f5f8201527f6e00000000000000000000000000000000000000000000000000000000000000602082015250565b5f6130d2602183612c54565b91506130dd82613078565b604082019050919050565b5f6020820190508181035f8301526130ff816130c6565b9050919050565b7f5573657220646f6573206e6f74206578697374000000000000000000000000005f82015250565b5f61313a601383612c54565b915061314582613106565b602082019050919050565b5f6020820190508181035f8301526131678161312e565b9050919050565b7f5573657220686173206e6f742072656e7465642061206d6f746f7200000000005f82015250565b5f6131a2601b83612c54565b91506131ad8261316e565b602082019050919050565b5f6020820190508181035f8301526131cf81613196565b9050919050565b7f4e487b71000000000000000000000000000000000000000000000000000000005f52601160045260245ffd5b5f61320d826125d0565b9150613218836125d0565b92508282039050818111156132305761322f6131d6565b5b92915050565b5f613240826125d0565b915061324b836125d0565b9250828201905080821115613263576132626131d6565b5b92915050565b7f4d6f746f72206973206e6f7420617661696c61626c6520666f722075736500005f82015250565b5f61329d601e83612c54565b91506132a882613269565b602082019050919050565b5f6020820190508181035f8301526132ca81613291565b9050919050565b7f557365722068617320616c72656164792072656e7465642061206d6f746f72005f82015250565b5f613305601f83612c54565b9150613310826132d1565b602082019050919050565b5f6020820190508181035f830152613332816132f9565b9050919050565b7f5573657220686173206465627420746f207061790000000000000000000000005f82015250565b5f61336d601483612c54565b915061337882613339565b602082019050919050565b5f6020820190508181035f83015261339a81613361565b9050919050565b7f496e73756666696369656e7420636f6e74726163742062616c616e636520746f5f8201527f2077697468647261770000000000000000000000000000000000000000000000602082015250565b5f6133fb602983612c54565b9150613406826133a1565b604082019050919050565b5f6020820190508181035f830152613428816133ef565b9050919050565b5f81905092915050565b50565b5f6134475f8361342f565b915061345282613439565b5f82019050919050565b5f6134668261343c565b9150819050919050565b7f5472616e73666572206661696c656400000000000000000000000000000000005f82015250565b5f6134a4600f83612c54565b91506134af82613470565b602082019050919050565b5f6020820190508181035f8301526134d181613498565b9050919050565b5f6134e2826125d0565b91507fffffffffffffffffffffffffffffffffffffffffffffffffffffffffffffffff8203613514576135136131d6565b5b600182019050919050565b7f4e487b71000000000000000000000000000000000000000000000000000000005f52603260045260245ffd5b5f6080820190508181035f8301526135648187612fc2565b905081810360208301526135788186612fc2565b905061358760408301856129bf565b61359460608301846129bf565b95945050505050565b7f4d6f746f72207769746820676976656e20696420646f6573206e6f74206578695f8201527f7374000000000000000000000000000000000000000000000000000000000000602082015250565b5f6135f7602283612c54565b91506136028261359d565b604082019050919050565b5f6020820190508181035f830152613624816135eb565b9050919050565b5f82905092915050565b61363f838361362b565b67ffffffffffffffff81111561365857613657612ccc565b5b6136628254612d26565b61366d828285612e6a565b5f601f83116001811461369a575f8415613688578287013590505b6136928582612ed8565b8655506136f9565b601f1984166136a886612d56565b5f5b828110156136cf578489013582556001820191506020850194506020810190506136aa565b868310156136ec57848901356136e8601f891682612ebc565b8355505b6001600288020188555050505b50505050505050565b7f5573657220686173206e6f206465627420746f207061790000000000000000005f82015250565b5f613736601783612c54565b915061374182613702565b602082019050919050565b5f6020820190508181035f8301526137638161372a565b9050919050565b7f557365722068617320696e73756666696369656e742062616c616e63650000005f82015250565b5f61379e601d83612c54565b91506137a98261376a565b602082019050919050565b5f6020820190508181035f8301526137cb81613792565b9050919050565b6137db81612791565b82525050565b5f6020820190506137f45f8301846137d2565b92915050565b7f4e487b71000000000000000000000000000000000000000000000000000000005f52601260045260245ffd5b5f613831826125d0565b915061383c836125d0565b92508261384c5761384b6137fa565b5b828204905092915050565b5f613861826125d0565b915061386c836125d0565b925082820261387a816125d0565b91508282048414831517613891576138906131d6565b5b5092915050565b7f5265656e7472616e637947756172643a207265656e7472616e742063616c6c005f82015250565b5f6138cc601f83612c54565b91506138d782613898565b602082019050919050565b5f6020820190508181035f8301526138f9816138c0565b905091905056fea26469706673582212200b58bdc4413fb6a26133599a86d46502b3dadb8e5dc2e7d95e72af88db1ba7c664736f6c63430008140033",
  "immutableReferences": {},
  "source": "// SPDX-License-Identifier: MIT\npragma solidity >=0.4.25 <0.9.0;\n\nimport \"@openzeppelin/contracts/utils/Counters.sol\";\nimport \"@openzeppelin/contracts/security/ReentrancyGuard.sol\";\n\ncontract MotorRentalPlatform is ReentrancyGuard {\n\n    using Counters for Counters.Counter;\n    Counters.Counter private _counter;\n    \n    address private owner;\n    \n    uint256 private totalPayments;\n    \n    struct User {\n        address walletAddress;\n        string name;\n        string lastname;\n        uint256 balance;\n        uint256 rentedMotorId;\n        uint256 debt;\n        uint256 start;\n    }\n    \n    struct Motor {\n        uint256 id;\n        string name;\n        string imgUrl;\n        Status status;\n        uint256 rentFee;\n        uint256 saleFee;\n    }\n\n    enum Status {\n        Retired,\n        Available,\n        InUse\n    }\n    \n    event MotorAdded(\n        uint256 indexed id,\n        string name,\n        string imgUrl,\n        uint256 rentFee,\n        uint256 saleFee\n    );\n    event MotorMetadataEdited(\n        uint256 indexed id,\n        string name,\n        string imgUrl,\n        uint256 rentFee,\n        uint256 saleFee\n    );\n    event MotorStatusEdited(uint256 indexed id, Status status);\n    event UserAdded(address indexed walletAddress, string name, string lastname);\n    event Deposit(address indexed walletAddress, uint256 amount);\n    event CheckOut(address indexed walletAddress, uint256 indexed motorId);\n    event CheckIn(address indexed walletAddress, uint256 indexed motorId);\n    event PaymentMade(address indexed walletAddress, uint256 amount);\n    event BalanceWithdrawn(address indexed walletAddress, uint256 amount);\n    \n    mapping(address => User) private users;\n    \n    mapping(uint256 => Motor) private motors;\n\n    \n    constructor() {\n        owner = msg.sender;\n        totalPayments = 0;\n    }\n\n    modifier onlyOwner() {\n        require(msg.sender == owner, \"Only owner can call this function\");\n        _;\n    }\n\n    function setOwner(address _newOwner) external onlyOwner {\n        owner = _newOwner;\n    }\n\n    function addUser(string calldata name, string calldata lastname) external {\n        require(!isUser(msg.sender), \"User already exists\");\n        users[msg.sender] = User(msg.sender, name, lastname, 0, 0, 0, 0);\n\n        emit UserAdded(\n            msg.sender,\n            users[msg.sender].name,\n            users[msg.sender].lastname\n        );\n    }\n\n    function addMotor(\n        string calldata name,\n        string calldata url,\n        uint256 rent,\n        uint256 sale\n    ) external onlyOwner {\n        _counter.increment();\n        uint256 counter = _counter.current();\n        motors[counter] = Motor(counter, name, url, Status.Available, rent, sale);\n\n        emit MotorAdded(\n            counter,\n            motors[counter].name,\n            motors[counter].imgUrl,\n            motors[counter].rentFee,\n            motors[counter].saleFee\n        );\n    }\n\n    function editMotorMetadata(\n        uint256 id,\n        string calldata name,\n        string calldata imgUrl,\n        uint256 rentFee,\n        uint256 saleFee\n    ) external onlyOwner {\n        require(motors[id].id != 0, \"Motor with given id does not exist\");\n        Motor storage motor = motors[id];\n        if (bytes(name).length != 0) {\n            motor.name = name;\n        }\n        if (bytes(imgUrl).length != 0) {\n            motor.imgUrl = imgUrl;\n        }\n        if (rentFee > 0) {\n            motor.rentFee = rentFee;\n        }\n        if (saleFee > 0) {\n            motor.saleFee = saleFee;\n        }\n\n        emit MotorMetadataEdited(\n            id,\n            motor.name,\n            motor.imgUrl,\n            motor.rentFee,\n            motor.saleFee\n        );\n    }\n\n    function editMotorstatus(uint256 id, Status status) external onlyOwner {\n        require(motors[id].id != 0, \"Motor with given id does not exist\");\n        motors[id].status = status;\n\n        emit MotorStatusEdited(id, status);\n    }\n\n    function checkOut(uint256 id) external {\n        require(isUser(msg.sender), \"User does not exist\");\n        require(\n            motors[id].status == Status.Available,\n            \"Motor is not available for use\"\n        );\n        require(\n            users[msg.sender].rentedMotorId == 0,\n            \"User has already rented a motor\"\n        );\n        require(users[msg.sender].debt == 0, \"User has debt to pay\");\n\n        users[msg.sender].start = block.timestamp;\n        users[msg.sender].rentedMotorId = id;\n        motors[id].status = Status.InUse;\n\n        emit CheckOut(msg.sender, id);\n    }\n\n    function checkIn() external {\n        require(isUser(msg.sender), \"User does not exist\");\n        uint256 rentedMotorId = users[msg.sender].rentedMotorId;\n        require(rentedMotorId != 0, \"User has not rented a motor\");\n\n        uint256 usedSeconds = block.timestamp - users[msg.sender].start;\n        uint256 rentFee = motors[rentedMotorId].rentFee;\n        users[msg.sender].debt += calculateDebt(usedSeconds, rentFee);\n\n        users[msg.sender].rentedMotorId = 0;\n        users[msg.sender].start = 0;\n        motors[rentedMotorId].status = Status.Available;\n\n        emit CheckIn(msg.sender, rentedMotorId);\n    }\n\n    function deposit() external payable {\n        require(isUser(msg.sender), \"User does not exist\");\n        users[msg.sender].balance += msg.value;\n\n        emit Deposit(msg.sender, msg.value);\n    }\n\n    function makePayment() external {\n        require(isUser(msg.sender), \"User does not exist\");\n        uint256 debt = users[msg.sender].debt;\n        uint256 balance = users[msg.sender].balance;\n\n        require(debt > 0, \"User has no debt to pay\");\n        require(balance >= debt, \"User has insufficient balance\");\n\n        unchecked {\n            users[msg.sender].balance -= debt;\n        }\n        totalPayments += debt;\n        users[msg.sender].debt = 0;\n\n        emit PaymentMade(msg.sender, debt);\n    }\n\n    function withdrawBalance(uint256 amount) external nonReentrant {\n        require(isUser(msg.sender), \"User does not exist\");\n        uint256 balance = users[msg.sender].balance;\n\n        require(balance >= amount, \"User has insufficient balance\");\n\n        unchecked {\n            users[msg.sender].balance -= amount;\n        }\n        (bool success, ) = msg.sender.call{value: amount}(\"\");\n        require(success, \"Transfer failed\");\n\n        emit BalanceWithdrawn(msg.sender, amount);\n    }\n\n    function withdrawOwnerBalance(uint256 amount) external onlyOwner {\n        require(\n            totalPayments >= amount,\n            \"Insufficient contract balance to withdraw\"\n        );\n\n        (bool success, ) = owner.call{value: amount}(\"\");\n        require(success, \"Transfer failed\");\n\n        unchecked {\n            totalPayments -= amount;\n        }\n\n        emit BalanceWithdrawn(msg.sender, amount);\n    }\n\n    function getOwner() external view returns (address) {\n        return owner;\n    }\n\n    function isUser(address walletAddress) private view returns (bool) {\n        return users[walletAddress].walletAddress != address(0);\n    }\n\n    function getUser(\n        address walletAddress\n    ) external view returns (User memory) {\n        require(isUser(walletAddress), \"User does not exist\");\n        return users[walletAddress];\n    }\n\n    function getMotor(uint256 id) external view returns (Motor memory) {\n        require(motors[id].id != 0, \"Motor with given id does not exist\");\n        return motors[id];\n    }\n\n    function getMotorByStatus(\n        Status _status\n    ) external view returns (Motor[] memory) {\n        uint256 count = 0;\n        uint256 counter = _counter.current();\n        for (uint256 i = 1; i <= counter; i++) {\n            if (motors[i].status == _status) {\n                count++;\n            }\n        }\n        Motor[] memory result = new Motor[](count);\n        uint256 index = 0;\n        for (uint256 i = 1; i <= counter; i++) {\n            if (motors[i].status == _status) {\n                result[index] = motors[i];\n                index++;\n            }\n        }\n        return result;\n    }\n\n    function calculateDebt(\n        uint256 usedSeconds,\n        uint256 rentFee\n    ) private pure returns (uint256) {\n        return (usedSeconds / 60) * rentFee;\n    }\n\n    function getCurrentCount() external view returns (uint256) {\n        return _counter.current();\n    }\n\n    function getContractBalance() external view onlyOwner returns (uint256) {\n        return address(this).balance;\n    }\n\n    function getTotalPayments() external view onlyOwner returns (uint256) {\n        return totalPayments;\n    }\n}",
  "sourcePath": "D:\\solidity_projects\\first_part\\contracts\\bsc\\MotorRentalPlatform.sol",
  "compiler": {
    "name": "solc",
    "version": "0.8.20+commit.a1b79de6.Emscripten.clang"
  },
  "schemaVersion": "3.4.14",
  "updatedAt": "2023-06-17T20:48:10.807Z",
  "networkType": "ethereum",
  "devdoc": {
    "kind": "dev",
    "methods": {},
    "version": 1
  },
  "userdoc": {
    "kind": "user",
    "methods": {},
    "version": 1
  },
  "db": {
    "callBytecode": {
      "id": "0x74098b8cdc6d75aa6ff04d585dd4dbef88fa84cbc61ba40027621b4f0ca6891c"
    },
    "createBytecode": {
      "id": "0xd2e7f3dae6e9d708b559625d6f040e03c56a27dd0afa25e20408530ceed6ad28"
    },
    "contract": {
      "id": "0x3e85b8f57b0a0a4c5b18a9f0767bcdcc60d2b456249444c7474234e6d8128eb6"
    }
  }
}