{
  "contractName": "SecondhandBook",
  "abi": [
    {
      "inputs": [],
      "stateMutability": "nonpayable",
      "type": "constructor"
    },
    {
      "anonymous": false,
      "inputs": [
        {
          "indexed": true,
          "internalType": "address",
          "name": "walletAddress",
          "type": "address"
        },
        {
          "indexed": false,
          "internalType": "uint256",
          "name": "amount",
          "type": "uint256"
        }
      ],
      "name": "Balance",
      "type": "event"
    },
    {
      "anonymous": false,
      "inputs": [
        {
          "indexed": true,
          "internalType": "uint256",
          "name": "id",
          "type": "uint256"
        },
        {
          "indexed": false,
          "internalType": "string",
          "name": "name",
          "type": "string"
        },
        {
          "indexed": false,
          "internalType": "string",
          "name": "imgUrl",
          "type": "string"
        },
        {
          "indexed": false,
          "internalType": "uint256",
          "name": "borrowFee",
          "type": "uint256"
        },
        {
          "indexed": false,
          "internalType": "uint256",
          "name": "saleFee",
          "type": "uint256"
        }
      ],
      "name": "BookAdded",
      "type": "event"
    },
    {
      "anonymous": false,
      "inputs": [
        {
          "indexed": true,
          "internalType": "uint256",
          "name": "id",
          "type": "uint256"
        },
        {
          "indexed": false,
          "internalType": "string",
          "name": "name",
          "type": "string"
        },
        {
          "indexed": false,
          "internalType": "string",
          "name": "imgUrl",
          "type": "string"
        },
        {
          "indexed": false,
          "internalType": "uint256",
          "name": "borrowFee",
          "type": "uint256"
        },
        {
          "indexed": false,
          "internalType": "uint256",
          "name": "saleFee",
          "type": "uint256"
        }
      ],
      "name": "BookMetadataEdited",
      "type": "event"
    },
    {
      "anonymous": false,
      "inputs": [
        {
          "indexed": true,
          "internalType": "uint256",
          "name": "id",
          "type": "uint256"
        },
        {
          "indexed": false,
          "internalType": "enum SecondhandBook.Status",
          "name": "status",
          "type": "uint8"
        }
      ],
      "name": "BookStatusEdited",
      "type": "event"
    },
    {
      "anonymous": false,
      "inputs": [
        {
          "indexed": true,
          "internalType": "address",
          "name": "walletAddress",
          "type": "address"
        },
        {
          "indexed": true,
          "internalType": "uint256",
          "name": "bookId",
          "type": "uint256"
        }
      ],
      "name": "CheckInEvent",
      "type": "event"
    },
    {
      "anonymous": false,
      "inputs": [
        {
          "indexed": true,
          "internalType": "address",
          "name": "walletAddress",
          "type": "address"
        },
        {
          "indexed": true,
          "internalType": "uint256",
          "name": "bookId",
          "type": "uint256"
        }
      ],
      "name": "Checkout",
      "type": "event"
    },
    {
      "anonymous": false,
      "inputs": [
        {
          "indexed": true,
          "internalType": "address",
          "name": "walletAddress",
          "type": "address"
        },
        {
          "indexed": false,
          "internalType": "uint256",
          "name": "amount",
          "type": "uint256"
        }
      ],
      "name": "Deposit",
      "type": "event"
    },
    {
      "anonymous": false,
      "inputs": [
        {
          "indexed": true,
          "internalType": "address",
          "name": "walletAddress",
          "type": "address"
        },
        {
          "indexed": false,
          "internalType": "uint256",
          "name": "amount",
          "type": "uint256"
        }
      ],
      "name": "PaymentMade",
      "type": "event"
    },
    {
      "anonymous": false,
      "inputs": [
        {
          "indexed": true,
          "internalType": "address",
          "name": "walletAddress",
          "type": "address"
        },
        {
          "indexed": false,
          "internalType": "string",
          "name": "name",
          "type": "string"
        },
        {
          "indexed": false,
          "internalType": "string",
          "name": "lastname",
          "type": "string"
        }
      ],
      "name": "UserAdded",
      "type": "event"
    },
    {
      "inputs": [
        {
          "internalType": "address",
          "name": "_newOwner",
          "type": "address"
        }
      ],
      "name": "setOwner",
      "outputs": [],
      "stateMutability": "nonpayable",
      "type": "function"
    },
    {
      "inputs": [
        {
          "internalType": "string",
          "name": "name",
          "type": "string"
        },
        {
          "internalType": "string",
          "name": "_lastName",
          "type": "string"
        }
      ],
      "name": "addUser",
      "outputs": [],
      "stateMutability": "nonpayable",
      "type": "function"
    },
    {
      "inputs": [
        {
          "internalType": "string",
          "name": "name",
          "type": "string"
        },
        {
          "internalType": "string",
          "name": "url",
          "type": "string"
        },
        {
          "internalType": "uint256",
          "name": "borrow",
          "type": "uint256"
        },
        {
          "internalType": "uint256",
          "name": "sale",
          "type": "uint256"
        }
      ],
      "name": "addBook",
      "outputs": [],
      "stateMutability": "nonpayable",
      "type": "function"
    },
    {
      "inputs": [
        {
          "internalType": "uint256",
          "name": "id",
          "type": "uint256"
        },
        {
          "internalType": "string",
          "name": "name",
          "type": "string"
        },
        {
          "internalType": "string",
          "name": "imgUrl",
          "type": "string"
        },
        {
          "internalType": "uint256",
          "name": "borrowFee",
          "type": "uint256"
        },
        {
          "internalType": "uint256",
          "name": "saleFee",
          "type": "uint256"
        }
      ],
      "name": "editBookMetadata",
      "outputs": [],
      "stateMutability": "nonpayable",
      "type": "function"
    },
    {
      "inputs": [
        {
          "internalType": "uint256",
          "name": "id",
          "type": "uint256"
        },
        {
          "internalType": "enum SecondhandBook.Status",
          "name": "status",
          "type": "uint8"
        }
      ],
      "name": "editBookStatus",
      "outputs": [],
      "stateMutability": "nonpayable",
      "type": "function"
    },
    {
      "inputs": [
        {
          "internalType": "uint256",
          "name": "id",
          "type": "uint256"
        }
      ],
      "name": "checkOut",
      "outputs": [],
      "stateMutability": "nonpayable",
      "type": "function"
    },
    {
      "inputs": [],
      "name": "CheckIn",
      "outputs": [],
      "stateMutability": "nonpayable",
      "type": "function"
    },
    {
      "inputs": [],
      "name": "deposit",
      "outputs": [],
      "stateMutability": "payable",
      "type": "function"
    },
    {
      "inputs": [],
      "name": "makePayment",
      "outputs": [],
      "stateMutability": "payable",
      "type": "function"
    },
    {
      "inputs": [
        {
          "internalType": "uint256",
          "name": "amount",
          "type": "uint256"
        }
      ],
      "name": "withdrawBalance",
      "outputs": [],
      "stateMutability": "nonpayable",
      "type": "function"
    },
    {
      "inputs": [
        {
          "internalType": "uint256",
          "name": "amount",
          "type": "uint256"
        }
      ],
      "name": "withdrawOwnerBalance",
      "outputs": [],
      "stateMutability": "nonpayable",
      "type": "function"
    },
    {
      "inputs": [],
      "name": "getOwner",
      "outputs": [
        {
          "internalType": "address",
          "name": "",
          "type": "address"
        }
      ],
      "stateMutability": "view",
      "type": "function"
    },
    {
      "inputs": [
        {
          "internalType": "address",
          "name": "walletAddress",
          "type": "address"
        }
      ],
      "name": "getUser",
      "outputs": [
        {
          "components": [
            {
              "internalType": "address",
              "name": "walletAddress",
              "type": "address"
            },
            {
              "internalType": "string",
              "name": "name",
              "type": "string"
            },
            {
              "internalType": "string",
              "name": "lastname",
              "type": "string"
            },
            {
              "internalType": "uint256",
              "name": "borrowedBookId",
              "type": "uint256"
            },
            {
              "internalType": "uint256",
              "name": "balance",
              "type": "uint256"
            },
            {
              "internalType": "uint256",
              "name": "debt",
              "type": "uint256"
            },
            {
              "internalType": "uint256",
              "name": "start",
              "type": "uint256"
            }
          ],
          "internalType": "struct SecondhandBook.User",
          "name": "",
          "type": "tuple"
        }
      ],
      "stateMutability": "view",
      "type": "function"
    },
    {
      "inputs": [
        {
          "internalType": "uint256",
          "name": "id",
          "type": "uint256"
        }
      ],
      "name": "getBook",
      "outputs": [
        {
          "components": [
            {
              "internalType": "uint256",
              "name": "id",
              "type": "uint256"
            },
            {
              "internalType": "string",
              "name": "name",
              "type": "string"
            },
            {
              "internalType": "string",
              "name": "imgUrl",
              "type": "string"
            },
            {
              "internalType": "enum SecondhandBook.Status",
              "name": "status",
              "type": "uint8"
            },
            {
              "internalType": "uint256",
              "name": "borrowFee",
              "type": "uint256"
            },
            {
              "internalType": "uint256",
              "name": "saleFee",
              "type": "uint256"
            }
          ],
          "internalType": "struct SecondhandBook.Book",
          "name": "",
          "type": "tuple"
        }
      ],
      "stateMutability": "view",
      "type": "function"
    },
    {
      "inputs": [
        {
          "internalType": "enum SecondhandBook.Status",
          "name": "_status",
          "type": "uint8"
        }
      ],
      "name": "getBookByStatus",
      "outputs": [
        {
          "components": [
            {
              "internalType": "uint256",
              "name": "id",
              "type": "uint256"
            },
            {
              "internalType": "string",
              "name": "name",
              "type": "string"
            },
            {
              "internalType": "string",
              "name": "imgUrl",
              "type": "string"
            },
            {
              "internalType": "enum SecondhandBook.Status",
              "name": "status",
              "type": "uint8"
            },
            {
              "internalType": "uint256",
              "name": "borrowFee",
              "type": "uint256"
            },
            {
              "internalType": "uint256",
              "name": "saleFee",
              "type": "uint256"
            }
          ],
          "internalType": "struct SecondhandBook.Book[]",
          "name": "",
          "type": "tuple[]"
        }
      ],
      "stateMutability": "view",
      "type": "function"
    },
    {
      "inputs": [],
      "name": "getCurrentCount",
      "outputs": [
        {
          "internalType": "uint256",
          "name": "",
          "type": "uint256"
        }
      ],
      "stateMutability": "view",
      "type": "function"
    },
    {
      "inputs": [],
      "name": "getBalance",
      "outputs": [
        {
          "internalType": "uint256",
          "name": "",
          "type": "uint256"
        }
      ],
      "stateMutability": "view",
      "type": "function"
    },
    {
      "inputs": [],
      "name": "getTotalPayments",
      "outputs": [
        {
          "internalType": "uint256",
          "name": "",
          "type": "uint256"
        }
      ],
      "stateMutability": "view",
      "type": "function"
    }
  ],
  "bytecode": "0x608060405234801561000f575f80fd5b5060015f819055503360025f6101000a81548173ffffffffffffffffffffffffffffffffffffffff021916908373ffffffffffffffffffffffffffffffffffffffff1602179055505f6003819055506139948061006b5f395ff3fe608060405260043610610108575f3560e01c8063b1d6b6c811610094578063da76d5cd11610063578063da76d5cd146102f2578063dd51babf1461031a578063e0ff5b8b14610344578063e183310b14610380578063e79da7ba146103bc57610108565b8063b1d6b6c81461028e578063d0e30db0146102b6578063d4c6758b146102c0578063d8d79700146102e857610108565b806332187533116100db57806332187533146101ae5780633c69c657146101d65780636f77926b146101fe578063708f29a61461023a578063893d20e81461026457610108565b8063079eaf341461010c57806312065fe01461013457806313af40351461015e5780631bd2eeee14610186575b5f80fd5b348015610117575f80fd5b50610132600480360381019061012d9190612373565b6103d2565b005b34801561013f575f80fd5b5061014861061c565b6040516101559190612409565b60405180910390f35b348015610169575f80fd5b50610184600480360381019061017f919061247c565b610623565b005b348015610191575f80fd5b506101ac60048036038101906101a791906124d1565b6106f5565b005b3480156101b9575f80fd5b506101d460048036038101906101cf91906124fc565b6109d4565b005b3480156101e1575f80fd5b506101fc60048036038101906101f791906124d1565b610b82565b005b348015610209575f80fd5b50610224600480360381019061021f919061247c565b610d20565b60405161023191906126fb565b60405180910390f35b348015610245575f80fd5b5061024e610f5b565b60405161025b9190612409565b60405180910390f35b34801561026f575f80fd5b50610278610ff3565b604051610285919061272a565b60405180910390f35b348015610299575f80fd5b506102b460048036038101906102af9190612766565b61101b565b005b6102be611176565b005b3480156102cb575f80fd5b506102e660048036038101906102e191906127a4565b6112a6565b005b6102f0611509565b005b3480156102fd575f80fd5b50610318600480360381019061031391906124d1565b61175a565b005b348015610325575f80fd5b5061032e611980565b60405161033b9190612409565b60405180910390f35b34801561034f575f80fd5b5061036a600480360381019061036591906124d1565b611990565b6040516103779190612947565b60405180910390f35b34801561038b575f80fd5b506103a660048036038101906103a19190612967565b611b87565b6040516103b39190612ada565b60405180910390f35b3480156103c7575f80fd5b506103d0611ea3565b005b6103db33612146565b1561041b576040517f08c379a000000000000000000000000000000000000000000000000000000000815260040161041290612b54565b60405180910390fd5b6040518060e001604052803373ffffffffffffffffffffffffffffffffffffffff16815260200185858080601f0160208091040260200160405190810160405280939291908181526020018383808284375f81840152601f19601f82011690508083019250505050505050815260200183838080601f0160208091040260200160405190810160405280939291908181526020018383808284375f81840152601f19601f8201169050808301925050505050505081526020015f81526020015f81526020015f81526020015f81525060045f3373ffffffffffffffffffffffffffffffffffffffff1673ffffffffffffffffffffffffffffffffffffffff1681526020019081526020015f205f820151815f015f6101000a81548173ffffffffffffffffffffffffffffffffffffffff021916908373ffffffffffffffffffffffffffffffffffffffff16021790555060208201518160010190816105809190612d99565b5060408201518160020190816105969190612d99565b50606082015181600301556080820151816004015560a0820151816005015560c082015181600601559050503373ffffffffffffffffffffffffffffffffffffffff167f8eab1db142a914aff8b515eedb9177bd7effaef6d714c41e30bdf152067786078585858560405161060e9493929190612ea2565b60405180910390a250505050565b5f47905090565b60025f9054906101000a900473ffffffffffffffffffffffffffffffffffffffff1673ffffffffffffffffffffffffffffffffffffffff163373ffffffffffffffffffffffffffffffffffffffff16146106b2576040517f08c379a00000000000000000000000000000000000000000000000000000000081526004016106a990612f25565b60405180910390fd5b8060025f6101000a81548173ffffffffffffffffffffffffffffffffffffffff021916908373ffffffffffffffffffffffffffffffffffffffff16021790555050565b6106fe33612146565b61073d576040517f08c379a000000000000000000000000000000000000000000000000000000000815260040161073490612f8d565b60405180910390fd5b6002808111156107505761074f612847565b5b60055f8381526020019081526020015f206003015f9054906101000a900460ff16600281111561078357610782612847565b5b146107c3576040517f08c379a00000000000000000000000000000000000000000000000000000000081526004016107ba90612ff5565b60405180910390fd5b5f60045f3373ffffffffffffffffffffffffffffffffffffffff1673ffffffffffffffffffffffffffffffffffffffff1681526020019081526020015f206003015414610845576040517f08c379a000000000000000000000000000000000000000000000000000000000815260040161083c9061305d565b60405180910390fd5b5f60045f3373ffffffffffffffffffffffffffffffffffffffff1673ffffffffffffffffffffffffffffffffffffffff1681526020019081526020015f2060050154146108c7576040517f08c379a00000000000000000000000000000000000000000000000000000000081526004016108be906130c5565b60405180910390fd5b4260045f3373ffffffffffffffffffffffffffffffffffffffff1673ffffffffffffffffffffffffffffffffffffffff1681526020019081526020015f20600601819055508060045f3373ffffffffffffffffffffffffffffffffffffffff1673ffffffffffffffffffffffffffffffffffffffff1681526020019081526020015f2060030181905550600160055f8381526020019081526020015f206003015f6101000a81548160ff0219169083600281111561098857610987612847565b5b0217905550803373ffffffffffffffffffffffffffffffffffffffff167f10190e7f174afbe5482194d509017e9df854671cd62fb4ef901fbd0080c1e6b660405160405180910390a350565b60025f9054906101000a900473ffffffffffffffffffffffffffffffffffffffff1673ffffffffffffffffffffffffffffffffffffffff163373ffffffffffffffffffffffffffffffffffffffff1614610a63576040517f08c379a0000000000000000000000000000000000000000000000000000000008152600401610a5a90612f25565b60405180910390fd5b5f60055f8981526020019081526020015f205f015403610ab8576040517f08c379a0000000000000000000000000000000000000000000000000000000008152600401610aaf9061312d565b60405180910390fd5b5f60055f8981526020019081526020015f2090505f8787905014610aeb578686826001019182610ae9929190613155565b505b5f8585905014610b0a578484826002019182610b08929190613155565b505b5f8314610b1b578281600401819055505b5f8214610b2c578181600501819055505b877f962ee415106e53a4e1af2a14772262c4fd5e4f7c95d0179050cec4f03bc3fedd826001018360020184600401548560050154604051610b7094939291906132a3565b60405180910390a25050505050505050565b60025f9054906101000a900473ffffffffffffffffffffffffffffffffffffffff1673ffffffffffffffffffffffffffffffffffffffff163373ffffffffffffffffffffffffffffffffffffffff1614610c11576040517f08c379a0000000000000000000000000000000000000000000000000000000008152600401610c0890612f25565b60405180910390fd5b610c196121dc565b8060035411610c5d576040517f08c379a0000000000000000000000000000000000000000000000000000000008152600401610c549061333e565b60405180910390fd5b5f3373ffffffffffffffffffffffffffffffffffffffff1682604051610c8290613389565b5f6040518083038185875af1925050503d805f8114610cbc576040519150601f19603f3d011682016040523d82523d5f602084013e610cc1565b606091505b5050905080610d05576040517f08c379a0000000000000000000000000000000000000000000000000000000008152600401610cfc906133e7565b60405180910390fd5b8160035f828254039250508190555050610d1d612229565b50565b610d28612278565b610d3182612146565b610d70576040517f08c379a0000000000000000000000000000000000000000000000000000000008152600401610d679061344f565b60405180910390fd5b60045f8373ffffffffffffffffffffffffffffffffffffffff1673ffffffffffffffffffffffffffffffffffffffff1681526020019081526020015f206040518060e00160405290815f82015f9054906101000a900473ffffffffffffffffffffffffffffffffffffffff1673ffffffffffffffffffffffffffffffffffffffff1673ffffffffffffffffffffffffffffffffffffffff168152602001600182018054610e1c90612bcc565b80601f0160208091040260200160405190810160405280929190818152602001828054610e4890612bcc565b8015610e935780601f10610e6a57610100808354040283529160200191610e93565b820191905f5260205f20905b815481529060010190602001808311610e7657829003601f168201915b50505050508152602001600282018054610eac90612bcc565b80601f0160208091040260200160405190810160405280929190818152602001828054610ed890612bcc565b8015610f235780601f10610efa57610100808354040283529160200191610f23565b820191905f5260205f20905b815481529060010190602001808311610f0657829003601f168201915b505050505081526020016003820154815260200160048201548152602001600582015481526020016006820154815250509050919050565b5f60025f9054906101000a900473ffffffffffffffffffffffffffffffffffffffff1673ffffffffffffffffffffffffffffffffffffffff163373ffffffffffffffffffffffffffffffffffffffff1614610feb576040517f08c379a0000000000000000000000000000000000000000000000000000000008152600401610fe290612f25565b60405180910390fd5b600354905090565b5f60025f9054906101000a900473ffffffffffffffffffffffffffffffffffffffff16905090565b60025f9054906101000a900473ffffffffffffffffffffffffffffffffffffffff1673ffffffffffffffffffffffffffffffffffffffff163373ffffffffffffffffffffffffffffffffffffffff16146110aa576040517f08c379a00000000000000000000000000000000000000000000000000000000081526004016110a190612f25565b60405180910390fd5b5f60055f8481526020019081526020015f205f0154036110ff576040517f08c379a00000000000000000000000000000000000000000000000000000000081526004016110f69061312d565b60405180910390fd5b8060055f8481526020019081526020015f206003015f6101000a81548160ff0219169083600281111561113557611134612847565b5b0217905550817ffd22c12703bdea3c8ec51f67d82be377f2381374dbe55209d78890e6ce24a9ff8260405161116a919061347c565b60405180910390a25050565b61117f33612146565b6111be576040517f08c379a00000000000000000000000000000000000000000000000000000000081526004016111b59061344f565b60405180910390fd5b5f3411611200576040517f08c379a00000000000000000000000000000000000000000000000000000000081526004016111f7906134df565b60405180910390fd5b3460045f3373ffffffffffffffffffffffffffffffffffffffff1673ffffffffffffffffffffffffffffffffffffffff1681526020019081526020015f206004015f82825461124f919061352a565b925050819055503373ffffffffffffffffffffffffffffffffffffffff167fe1fffcc4923d04b559f4d29a8bfc6cda04eb5b0d3c460751c2402c5c5cc9109c3460405161129c9190612409565b60405180910390a2565b60025f9054906101000a900473ffffffffffffffffffffffffffffffffffffffff1673ffffffffffffffffffffffffffffffffffffffff163373ffffffffffffffffffffffffffffffffffffffff1614611335576040517f08c379a000000000000000000000000000000000000000000000000000000000815260040161132c90612f25565b60405180910390fd5b61133f6001612232565b5f61134a6001612246565b90506040518060c0016040528082815260200188888080601f0160208091040260200160405190810160405280939291908181526020018383808284375f81840152601f19601f82011690508083019250505050505050815260200186868080601f0160208091040260200160405190810160405280939291908181526020018383808284375f81840152601f19601f82011690508083019250505050505050815260200160028081111561140257611401612847565b5b81526020018481526020018381525060055f8381526020019081526020015f205f820151815f0155602082015181600101908161143f9190612d99565b5060408201518160020190816114559190612d99565b506060820151816003015f6101000a81548160ff021916908360028111156114805761147f612847565b5b02179055506080820151816004015560a08201518160050155905050807f722c04650224f771c04ec5712c74689980b3ddb4eaa233cd8f9c72d7da7fbe2960055f8481526020019081526020015f2060010160055f8581526020019081526020015f2060020186866040516114f894939291906132a3565b60405180910390a250505050505050565b61151233612146565b611551576040517f08c379a00000000000000000000000000000000000000000000000000000000081526004016115489061344f565b60405180910390fd5b5f60045f3373ffffffffffffffffffffffffffffffffffffffff1673ffffffffffffffffffffffffffffffffffffffff1681526020019081526020015f206005015490505f60045f3373ffffffffffffffffffffffffffffffffffffffff1673ffffffffffffffffffffffffffffffffffffffff1681526020019081526020015f206004015490505f821161161b576040517f08c379a0000000000000000000000000000000000000000000000000000000008152600401611612906135a7565b60405180910390fd5b8181101561165e576040517f08c379a000000000000000000000000000000000000000000000000000000000815260040161165590613635565b60405180910390fd5b3460045f3373ffffffffffffffffffffffffffffffffffffffff1673ffffffffffffffffffffffffffffffffffffffff1681526020019081526020015f206005015f82825403925050819055503460035f8282546116bc919061352a565b925050819055505f60045f3373ffffffffffffffffffffffffffffffffffffffff1673ffffffffffffffffffffffffffffffffffffffff1681526020019081526020015f20600501819055503373ffffffffffffffffffffffffffffffffffffffff167f3a2d0e41c506b136330c6e5e0295ccbf0966daece99bfe7c89020cc01dbfb8d68360405161174e9190612409565b60405180910390a25050565b6117626121dc565b61176b33612146565b6117aa576040517f08c379a00000000000000000000000000000000000000000000000000000000081526004016117a19061344f565b60405180910390fd5b5f60045f3373ffffffffffffffffffffffffffffffffffffffff1673ffffffffffffffffffffffffffffffffffffffff1681526020019081526020015f20600401549050818111611830576040517f08c379a00000000000000000000000000000000000000000000000000000000081526004016118279061369d565b60405180910390fd5b8160045f3373ffffffffffffffffffffffffffffffffffffffff1673ffffffffffffffffffffffffffffffffffffffff1681526020019081526020015f206004015f82825403925050819055505f3373ffffffffffffffffffffffffffffffffffffffff16836040516118a290613389565b5f6040518083038185875af1925050503d805f81146118dc576040519150601f19603f3d011682016040523d82523d5f602084013e6118e1565b606091505b5050905080611925576040517f08c379a000000000000000000000000000000000000000000000000000000000815260040161191c906133e7565b60405180910390fd5b3373ffffffffffffffffffffffffffffffffffffffff167f134e340554ff8a7d64280a2a28b982df554e2595e5bf45cd39368f31099172a68360405161196b9190612409565b60405180910390a2505061197d612229565b50565b5f61198b6001612246565b905090565b6119986122c6565b5f60055f8481526020019081526020015f205f0154036119ed576040517f08c379a00000000000000000000000000000000000000000000000000000000081526004016119e490613705565b60405180910390fd5b60055f8381526020019081526020015f206040518060c00160405290815f8201548152602001600182018054611a2290612bcc565b80601f0160208091040260200160405190810160405280929190818152602001828054611a4e90612bcc565b8015611a995780601f10611a7057610100808354040283529160200191611a99565b820191905f5260205f20905b815481529060010190602001808311611a7c57829003601f168201915b50505050508152602001600282018054611ab290612bcc565b80601f0160208091040260200160405190810160405280929190818152602001828054611ade90612bcc565b8015611b295780601f10611b0057610100808354040283529160200191611b29565b820191905f5260205f20905b815481529060010190602001808311611b0c57829003601f168201915b50505050508152602001600382015f9054906101000a900460ff166002811115611b5657611b55612847565b5b6002811115611b6857611b67612847565b5b8152602001600482015481526020016005820154815250509050919050565b60605f80611b956001612246565b90505f600190505b818111611c1157846002811115611bb757611bb6612847565b5b60055f8381526020019081526020015f206003015f9054906101000a900460ff166002811115611bea57611be9612847565b5b03611bfe578280611bfa90613723565b9350505b8080611c0990613723565b915050611b9d565b505f8267ffffffffffffffff811115611c2d57611c2c612b72565b5b604051908082528060200260200182016040528015611c6657816020015b611c536122c6565b815260200190600190039081611c4b5790505b5090505f92505f600190505b828111611e9757856002811115611c8c57611c8b612847565b5b60055f8381526020019081526020015f206003015f9054906101000a900460ff166002811115611cbf57611cbe612847565b5b03611e845760055f8281526020019081526020015f206040518060c00160405290815f8201548152602001600182018054611cf990612bcc565b80601f0160208091040260200160405190810160405280929190818152602001828054611d2590612bcc565b8015611d705780601f10611d4757610100808354040283529160200191611d70565b820191905f5260205f20905b815481529060010190602001808311611d5357829003601f168201915b50505050508152602001600282018054611d8990612bcc565b80601f0160208091040260200160405190810160405280929190818152602001828054611db590612bcc565b8015611e005780601f10611dd757610100808354040283529160200191611e00565b820191905f5260205f20905b815481529060010190602001808311611de357829003601f168201915b50505050508152602001600382015f9054906101000a900460ff166002811115611e2d57611e2c612847565b5b6002811115611e3f57611e3e612847565b5b815260200160048201548152602001600582015481525050828581518110611e6a57611e6961376a565b5b60200260200101819052508380611e8090613723565b9450505b8080611e8f90613723565b915050611c72565b50809350505050919050565b611eac33612146565b611eeb576040517f08c379a0000000000000000000000000000000000000000000000000000000008152600401611ee29061344f565b60405180910390fd5b5f60045f3373ffffffffffffffffffffffffffffffffffffffff1673ffffffffffffffffffffffffffffffffffffffff1681526020019081526020015f206003015490505f8103611f71576040517f08c379a0000000000000000000000000000000000000000000000000000000008152600401611f6890613807565b60405180910390fd5b5f60045f3373ffffffffffffffffffffffffffffffffffffffff1673ffffffffffffffffffffffffffffffffffffffff1681526020019081526020015f206006015442611fbe9190613825565b90505f60055f8481526020019081526020015f20600401549050611fe28282612252565b60045f3373ffffffffffffffffffffffffffffffffffffffff1673ffffffffffffffffffffffffffffffffffffffff1681526020019081526020015f206005015f828254612030919061352a565b925050819055505f60045f3373ffffffffffffffffffffffffffffffffffffffff1673ffffffffffffffffffffffffffffffffffffffff1681526020019081526020015f20600301819055505f60045f3373ffffffffffffffffffffffffffffffffffffffff1673ffffffffffffffffffffffffffffffffffffffff1681526020019081526020015f2060060181905550600260055f8581526020019081526020015f206003015f6101000a81548160ff021916908360028111156120f8576120f7612847565b5b0217905550823373ffffffffffffffffffffffffffffffffffffffff167fa6a1daf8de816aba3b1ca455a4fd97cd44d0284c1777877bffdbd7304402955160405160405180910390a3505050565b5f8073ffffffffffffffffffffffffffffffffffffffff1660045f8473ffffffffffffffffffffffffffffffffffffffff1673ffffffffffffffffffffffffffffffffffffffff1681526020019081526020015f205f015f9054906101000a900473ffffffffffffffffffffffffffffffffffffffff1673ffffffffffffffffffffffffffffffffffffffff1614159050919050565b60025f5403612220576040517f08c379a0000000000000000000000000000000000000000000000000000000008152600401612217906138a2565b60405180910390fd5b60025f81905550565b60015f81905550565b6001815f015f828254019250508190555050565b5f815f01549050919050565b5f80603c8461226191906138ed565b9050828161226f919061391d565b91505092915050565b6040518060e001604052805f73ffffffffffffffffffffffffffffffffffffffff16815260200160608152602001606081526020015f81526020015f81526020015f81526020015f81525090565b6040518060c001604052805f815260200160608152602001606081526020015f60028111156122f8576122f7612847565b5b81526020015f81526020015f81525090565b5f80fd5b5f80fd5b5f80fd5b5f80fd5b5f80fd5b5f8083601f84011261233357612332612312565b5b8235905067ffffffffffffffff8111156123505761234f612316565b5b60208301915083600182028301111561236c5761236b61231a565b5b9250929050565b5f805f806040858703121561238b5761238a61230a565b5b5f85013567ffffffffffffffff8111156123a8576123a761230e565b5b6123b48782880161231e565b9450945050602085013567ffffffffffffffff8111156123d7576123d661230e565b5b6123e38782880161231e565b925092505092959194509250565b5f819050919050565b612403816123f1565b82525050565b5f60208201905061241c5f8301846123fa565b92915050565b5f73ffffffffffffffffffffffffffffffffffffffff82169050919050565b5f61244b82612422565b9050919050565b61245b81612441565b8114612465575f80fd5b50565b5f8135905061247681612452565b92915050565b5f602082840312156124915761249061230a565b5b5f61249e84828501612468565b91505092915050565b6124b0816123f1565b81146124ba575f80fd5b50565b5f813590506124cb816124a7565b92915050565b5f602082840312156124e6576124e561230a565b5b5f6124f3848285016124bd565b91505092915050565b5f805f805f805f60a0888a0312156125175761251661230a565b5b5f6125248a828b016124bd565b975050602088013567ffffffffffffffff8111156125455761254461230e565b5b6125518a828b0161231e565b9650965050604088013567ffffffffffffffff8111156125745761257361230e565b5b6125808a828b0161231e565b945094505060606125938a828b016124bd565b92505060806125a48a828b016124bd565b91505092959891949750929550565b6125bc81612441565b82525050565b5f81519050919050565b5f82825260208201905092915050565b5f5b838110156125f95780820151818401526020810190506125de565b5f8484015250505050565b5f601f19601f8301169050919050565b5f61261e826125c2565b61262881856125cc565b93506126388185602086016125dc565b61264181612604565b840191505092915050565b612655816123f1565b82525050565b5f60e083015f8301516126705f8601826125b3565b50602083015184820360208601526126888282612614565b915050604083015184820360408601526126a28282612614565b91505060608301516126b7606086018261264c565b5060808301516126ca608086018261264c565b5060a08301516126dd60a086018261264c565b5060c08301516126f060c086018261264c565b508091505092915050565b5f6020820190508181035f830152612713818461265b565b905092915050565b61272481612441565b82525050565b5f60208201905061273d5f83018461271b565b92915050565b6003811061274f575f80fd5b50565b5f8135905061276081612743565b92915050565b5f806040838503121561277c5761277b61230a565b5b5f612789858286016124bd565b925050602061279a85828601612752565b9150509250929050565b5f805f805f80608087890312156127be576127bd61230a565b5b5f87013567ffffffffffffffff8111156127db576127da61230e565b5b6127e789828a0161231e565b9650965050602087013567ffffffffffffffff81111561280a5761280961230e565b5b61281689828a0161231e565b9450945050604061282989828a016124bd565b925050606061283a89828a016124bd565b9150509295509295509295565b7f4e487b71000000000000000000000000000000000000000000000000000000005f52602160045260245ffd5b6003811061288557612884612847565b5b50565b5f81905061289582612874565b919050565b5f6128a482612888565b9050919050565b6128b48161289a565b82525050565b5f60c083015f8301516128cf5f86018261264c565b50602083015184820360208601526128e78282612614565b915050604083015184820360408601526129018282612614565b915050606083015161291660608601826128ab565b506080830151612929608086018261264c565b5060a083015161293c60a086018261264c565b508091505092915050565b5f6020820190508181035f83015261295f81846128ba565b905092915050565b5f6020828403121561297c5761297b61230a565b5b5f61298984828501612752565b91505092915050565b5f81519050919050565b5f82825260208201905092915050565b5f819050602082019050919050565b5f60c083015f8301516129d05f86018261264c565b50602083015184820360208601526129e88282612614565b91505060408301518482036040860152612a028282612614565b9150506060830151612a1760608601826128ab565b506080830151612a2a608086018261264c565b5060a0830151612a3d60a086018261264c565b508091505092915050565b5f612a5383836129bb565b905092915050565b5f602082019050919050565b5f612a7182612992565b612a7b818561299c565b935083602082028501612a8d856129ac565b805f5b85811015612ac85784840389528151612aa98582612a48565b9450612ab483612a5b565b925060208a01995050600181019050612a90565b50829750879550505050505092915050565b5f6020820190508181035f830152612af28184612a67565b905092915050565b5f82825260208201905092915050565b7f5573657220616c726561647920657869737473000000000000000000000000005f82015250565b5f612b3e601383612afa565b9150612b4982612b0a565b602082019050919050565b5f6020820190508181035f830152612b6b81612b32565b9050919050565b7f4e487b71000000000000000000000000000000000000000000000000000000005f52604160045260245ffd5b7f4e487b71000000000000000000000000000000000000000000000000000000005f52602260045260245ffd5b5f6002820490506001821680612be357607f821691505b602082108103612bf657612bf5612b9f565b5b50919050565b5f819050815f5260205f209050919050565b5f6020601f8301049050919050565b5f82821b905092915050565b5f60088302612c587fffffffffffffffffffffffffffffffffffffffffffffffffffffffffffffffff82612c1d565b612c628683612c1d565b95508019841693508086168417925050509392505050565b5f819050919050565b5f612c9d612c98612c93846123f1565b612c7a565b6123f1565b9050919050565b5f819050919050565b612cb683612c83565b612cca612cc282612ca4565b848454612c29565b825550505050565b5f90565b612cde612cd2565b612ce9818484612cad565b505050565b5b81811015612d0c57612d015f82612cd6565b600181019050612cef565b5050565b601f821115612d5157612d2281612bfc565b612d2b84612c0e565b81016020851015612d3a578190505b612d4e612d4685612c0e565b830182612cee565b50505b505050565b5f82821c905092915050565b5f612d715f1984600802612d56565b1980831691505092915050565b5f612d898383612d62565b9150826002028217905092915050565b612da2826125c2565b67ffffffffffffffff811115612dbb57612dba612b72565b5b612dc58254612bcc565b612dd0828285612d10565b5f60209050601f831160018114612e01575f8415612def578287015190505b612df98582612d7e565b865550612e60565b601f198416612e0f86612bfc565b5f5b82811015612e3657848901518255600182019150602085019450602081019050612e11565b86831015612e535784890151612e4f601f891682612d62565b8355505b6001600288020188555050505b505050505050565b828183375f83830152505050565b5f612e818385612afa565b9350612e8e838584612e68565b612e9783612604565b840190509392505050565b5f6040820190508181035f830152612ebb818688612e76565b90508181036020830152612ed0818486612e76565b905095945050505050565b7f4f6e6c7920746865206f776e65722068617320616363657373000000000000005f82015250565b5f612f0f601983612afa565b9150612f1a82612edb565b602082019050919050565b5f6020820190508181035f830152612f3c81612f03565b9050919050565b7f5573657220646f65736e277420657869737400000000000000000000000000005f82015250565b5f612f77601283612afa565b9150612f8282612f43565b602082019050919050565b5f6020820190508181035f830152612fa481612f6b565b9050919050565b7f426f6f6b206973206e6f7420617661696c61626c6500000000000000000000005f82015250565b5f612fdf601583612afa565b9150612fea82612fab565b602082019050919050565b5f6020820190508181035f83015261300c81612fd3565b9050919050565b7f5573657220616c726561647920686173206120626f6f6b20626f72726f7765645f82015250565b5f613047602083612afa565b915061305282613013565b602082019050919050565b5f6020820190508181035f8301526130748161303b565b9050919050565b7f55736572206861732064656274000000000000000000000000000000000000005f82015250565b5f6130af600d83612afa565b91506130ba8261307b565b602082019050919050565b5f6020820190508181035f8301526130dc816130a3565b9050919050565b7f426f6f6b20646f65736e277420657869737400000000000000000000000000005f82015250565b5f613117601283612afa565b9150613122826130e3565b602082019050919050565b5f6020820190508181035f8301526131448161310b565b9050919050565b5f82905092915050565b61315f838361314b565b67ffffffffffffffff81111561317857613177612b72565b5b6131828254612bcc565b61318d828285612d10565b5f601f8311600181146131ba575f84156131a8578287013590505b6131b28582612d7e565b865550613219565b601f1984166131c886612bfc565b5f5b828110156131ef578489013582556001820191506020850194506020810190506131ca565b8683101561320c5784890135613208601f891682612d62565b8355505b6001600288020188555050505b50505050505050565b5f815461322e81612bcc565b6132388186612afa565b9450600182165f811461325257600181146132685761329a565b60ff19831686528115156020028601935061329a565b61327185612bfc565b5f5b8381101561329257815481890152600182019150602081019050613273565b808801955050505b50505092915050565b5f6080820190508181035f8301526132bb8187613222565b905081810360208301526132cf8186613222565b90506132de60408301856123fa565b6132eb60608301846123fa565b95945050505050565b7f596f7520646f6e2774206861766520656e6f7567682062616c616e63650000005f82015250565b5f613328601d83612afa565b9150613333826132f4565b602082019050919050565b5f6020820190508181035f8301526133558161331c565b9050919050565b5f81905092915050565b50565b5f6133745f8361335c565b915061337f82613366565b5f82019050919050565b5f61339382613369565b9150819050919050565b7f5472616e73666572206661696c65642e000000000000000000000000000000005f82015250565b5f6133d1601083612afa565b91506133dc8261339d565b602082019050919050565b5f6020820190508181035f8301526133fe816133c5565b9050919050565b7f5573657220646f6573206e6f74206578697374000000000000000000000000005f82015250565b5f613439601383612afa565b915061344482613405565b602082019050919050565b5f6020820190508181035f8301526134668161342d565b9050919050565b6134768161289a565b82525050565b5f60208201905061348f5f83018461346d565b92915050565b7f596f75206d7573742073656e642067726561746572207468616e2030000000005f82015250565b5f6134c9601c83612afa565b91506134d482613495565b602082019050919050565b5f6020820190508181035f8301526134f6816134bd565b9050919050565b7f4e487b71000000000000000000000000000000000000000000000000000000005f52601160045260245ffd5b5f613534826123f1565b915061353f836123f1565b9250828201905080821115613557576135566134fd565b5b92915050565b7f5573657220646f6573206e6f74206861766520646562740000000000000000005f82015250565b5f613591601783612afa565b915061359c8261355d565b602082019050919050565b5f6020820190508181035f8301526135be81613585565b9050919050565b7f5573657220646f6573206e6f74206861766520656e6f7567682062616c616e635f8201527f6500000000000000000000000000000000000000000000000000000000000000602082015250565b5f61361f602183612afa565b915061362a826135c5565b604082019050919050565b5f6020820190508181035f83015261364c81613613565b9050919050565b7f596f7520646f206e6f74206861766520656e6f7567682062616c616e636500005f82015250565b5f613687601e83612afa565b915061369282613653565b602082019050919050565b5f6020820190508181035f8301526136b48161367b565b9050919050565b7f426f6f6b20646f6573206e6f74206578697374000000000000000000000000005f82015250565b5f6136ef601383612afa565b91506136fa826136bb565b602082019050919050565b5f6020820190508181035f83015261371c816136e3565b9050919050565b5f61372d826123f1565b91507fffffffffffffffffffffffffffffffffffffffffffffffffffffffffffffffff820361375f5761375e6134fd565b5b600182019050919050565b7f4e487b71000000000000000000000000000000000000000000000000000000005f52603260045260245ffd5b7f5573657220646f65736e27742068617665206120626f6f6b20626f72726f77655f8201527f6400000000000000000000000000000000000000000000000000000000000000602082015250565b5f6137f1602183612afa565b91506137fc82613797565b604082019050919050565b5f6020820190508181035f83015261381e816137e5565b9050919050565b5f61382f826123f1565b915061383a836123f1565b9250828203905081811115613852576138516134fd565b5b92915050565b7f5265656e7472616e637947756172643a207265656e7472616e742063616c6c005f82015250565b5f61388c601f83612afa565b915061389782613858565b602082019050919050565b5f6020820190508181035f8301526138b981613880565b9050919050565b7f4e487b71000000000000000000000000000000000000000000000000000000005f52601260045260245ffd5b5f6138f7826123f1565b9150613902836123f1565b925082613912576139116138c0565b5b828204905092915050565b5f613927826123f1565b9150613932836123f1565b9250828202613940816123f1565b91508282048414831517613957576139566134fd565b5b509291505056fea26469706673582212205c24d8c7259d90a07fa18bff1ecfb0c13dd6ee2a3149c6bba16f546b935e8d1364736f6c63430008140033",
  "immutableReferences": {},
  "source": "// SPDX-License-Identifier: MIT\npragma solidity ^0.8.7;\n\nimport \"@openzeppelin/contracts/utils/Counters.sol\";\nimport \"@openzeppelin/contracts/security/ReentrancyGuard.sol\";\n\ncontract SecondhandBook is ReentrancyGuard {\n  using Counters for Counters.Counter;\n  Counters.Counter private _counter;\n\n  address private owner;\n  uint private totalPayments;\n\n  struct User {\n    address walletAddress;\n    string name;\n    string lastname;\n    uint borrowedBookId;\n    uint balance;\n    uint debt;\n    uint start;\n\n  }\n\n  struct Book {\n    uint id;\n    string name;\n    string imgUrl;\n    Status status;\n    uint borrowFee;\n    uint saleFee;\n\n  }\n\n  enum Status {\n    Retired,\n    InUse,\n    Available\n  }\n\n  event BookAdded(uint indexed id, string name, string imgUrl, uint borrowFee, uint saleFee);\n  event BookMetadataEdited(uint indexed id, string name, string imgUrl, uint borrowFee, uint saleFee); \n  event BookStatusEdited(uint indexed id, Status status);\n  event UserAdded(address indexed walletAddress, string name, string lastname);\n  event Deposit (address indexed walletAddress, uint amount);\n  event Checkout (address indexed walletAddress, uint indexed bookId);\n  event CheckInEvent (address indexed walletAddress, uint indexed bookId); //\n  event PaymentMade (address indexed walletAddress, uint amount);\n  event Balance (address indexed walletAddress, uint amount); //\n\n  mapping (address => User) private users;\n  mapping (uint => Book) private books;\n\n  constructor() {\n    owner = msg.sender;\n    totalPayments = 0;\n  }\n\n  modifier onlyOwner() {\n    require(msg.sender == owner, \"Only the owner has access\"); \n    _;\n  }\n\n  function setOwner (address _newOwner) external onlyOwner {\n    owner = _newOwner;\n  }\n\n  function addUser (string calldata name, string calldata _lastName ) external {\n    require(!isUser(msg.sender) , \"User already exists\");\n    users[msg.sender] = User(msg.sender, name, _lastName, 0, 0, 0, 0);\n    emit UserAdded(msg.sender, name, _lastName); //\n  }\n\n  function addBook ( string calldata name, string calldata url, uint borrow, uint sale) external onlyOwner {\n    _counter.increment();\n    uint counter = _counter.current();\n    books[counter] = Book(counter, name, url, Status.Available, borrow, sale);\n\n    emit BookAdded(counter, books[counter].name, books[counter].imgUrl, borrow, sale);\n  }\n\n  function editBookMetadata (uint id , string calldata name, string calldata imgUrl, uint borrowFee, uint saleFee) external onlyOwner {\n    require(books[id].id != 0, \"Book doesn't exist\");\n    Book storage book = books[id];\n    if(bytes(name).length != 0) {\n      book.name = name;\n    }\n    if(bytes(imgUrl).length != 0) {\n      book.imgUrl = imgUrl;\n    }\n    if(borrowFee != 0) {\n      book.borrowFee = borrowFee;\n    }\n    if(saleFee != 0) {\n      book.saleFee = saleFee;\n    }\n\n    emit BookMetadataEdited(id, book.name, book.imgUrl, book.borrowFee, book.saleFee);\n  }\n\n  function editBookStatus(uint id , Status status ) external onlyOwner {\n    require(books[id].id != 0, \"Book doesn't exist\");\n    books[id].status = status;\n    emit BookStatusEdited(id, status);\n  }\n\n  function checkOut(uint id) external {\n    require(isUser(msg.sender), \"User doesn't exist\");\n    require(books[id].status == Status.Available, \"Book is not available\");\n    require(users[msg.sender].borrowedBookId == 0, \"User already has a book borrowed\");\n    require(users[msg.sender].debt == 0, \"User has debt\");\n\n    users[msg.sender].start = block.timestamp;\n    users[msg.sender].borrowedBookId = id;\n    books[id].status = Status.InUse;\n\n    emit Checkout(msg.sender, id);\n  }\n\n  function CheckIn() external {\n    require(isUser(msg.sender), \"User does not exist\");\n    uint borrowedBookId = users[msg.sender].borrowedBookId;\n    require(borrowedBookId != 0, \"User doesn't have a book borrowed\");\n\n    uint timeElapsed = block.timestamp - users[msg.sender].start; // \n    uint borrowFee = books[borrowedBookId].borrowFee;\n    users[msg.sender].debt += calculateDebt(timeElapsed, borrowFee);\n    users[msg.sender].borrowedBookId = 0;\n    users[msg.sender].start = 0;\n    books[borrowedBookId].status = Status.Available;\n\n    emit CheckInEvent(msg.sender, borrowedBookId);\n  }\n\n  function deposit () external payable {\n    require(isUser(msg.sender), \"User does not exist\");\n    require(msg.value > 0, \"You must send greater than 0\"); // change\n    users[msg.sender].balance += msg.value;\n    emit Deposit(msg.sender, msg.value);\n  }\n\n  function makePayment () external payable {\n    require(isUser(msg.sender), \"User does not exist\");\n    uint debt = users[msg.sender].debt;\n    uint balance = users[msg.sender].balance;\n    require (debt > 0, \"User does not have debt\");\n    require (balance >= debt, \"User does not have enough balance\");\n\n    unchecked {\n      users[msg.sender].debt -= msg.value; // change\n    }\n\n    totalPayments += msg.value; // change\n    users[msg.sender].debt = 0;\n\n    emit PaymentMade(msg.sender, debt);\n  }\n\n  function withdrawBalance (uint amount) external nonReentrant {\n    require(isUser(msg.sender), \"User does not exist\");\n    uint balance = users[msg.sender].balance;\n    require(balance > amount, \"You do not have enough balance\");\n\n    unchecked {\n      users[msg.sender].balance -= amount;\n    }\n\n    (bool success, ) = msg.sender.call{value: amount}(\"\");\n    require(success, \"Transfer failed.\");\n\n    emit Balance(msg.sender, balance);\n  }\n\n  function withdrawOwnerBalance (uint amount) external onlyOwner nonReentrant { // change\n    require(totalPayments > amount, \"You don't have enough balance\");\n    (bool success, ) = msg.sender.call{value: amount}(\"\"); // change\n    require(success, \"Transfer failed.\");\n    \n    unchecked {\n      totalPayments -= amount;\n    }\n  \n  }\n\n  function getOwner () external view returns (address) {\n    return owner;\n  }\n\n  function isUser(address walletAddress) private view returns (bool) {\n    return users[walletAddress].walletAddress != address(0);\n  }\n\n  function getUser(address walletAddress) external view returns (User memory) {\n    require(isUser(walletAddress), \"User does not exist\");\n    return users[walletAddress];\n  }\n\n  function getBook(uint id) external view returns (Book memory) {\n    require(books[id].id != 0, \"Book does not exist\");\n    return books[id];\n  }\n\n  function getBookByStatus(Status _status) external view returns(Book[] memory) {\n    uint count = 0;\n    uint lenght = _counter.current();\n    for(uint i = 1; i <= lenght; i++) {\n      if(books[i].status == _status) {\n        count++;\n      }\n    }\n\n    Book[] memory result = new Book[](count); // change\n    count = 0;\n    for(uint i = 1; i <= lenght; i++) {\n      if(books[i].status == _status) {\n        result[count] = books[i]; // change\n        count++;\n      }\n    }\n    return result; // change\n  }\n\n  function calculateDebt(uint usedSecond, uint borrowFee) private pure returns (uint) {\n    uint usedMinutes = usedSecond / 60;\n    return usedMinutes * borrowFee;\n  }\n\n  function getCurrentCount() external view returns (uint) {\n    return _counter.current();\n  }\n\n  function getBalance() external view returns (uint) { // change\n    return address(this).balance;\n  }\n\n  function getTotalPayments() external view onlyOwner returns(uint) {\n    return totalPayments;\n  }\n\n\n}\n",
  "sourcePath": "D:\\solidity_projects\\first_part\\contracts\\bsc\\SecondhandBook.sol",
  "compiler": {
    "name": "solc",
    "version": "0.8.20+commit.a1b79de6.Emscripten.clang"
  },
  "schemaVersion": "3.4.14",
  "updatedAt": "2023-06-16T11:39:18.632Z",
  "devdoc": {
    "kind": "dev",
    "methods": {},
    "version": 1
  },
  "userdoc": {
    "kind": "user",
    "methods": {},
    "version": 1
  },
  "db": {
    "callBytecode": {
      "id": "0x874cff284a3c99429b49856b2fb8267ed8eadd701015621f4b021fd8d5c0b4cf"
    },
    "createBytecode": {
      "id": "0xea7c93c0d136d72da000953e5d11d95daf44b98f6d52e3d98c0b31970636814c"
    },
    "contract": {
      "id": "0xe6d71f9ef07ac0f8b6c28ba202f9c07cf762d38982b077cc6f46c5671ed1c9cc"
    }
  }
}